{
  "contractName": "LotteryFactory",
  "abi": [
    {
      "constant": true,
      "inputs": [],
      "name": "ticket",
      "outputs": [
        {
          "name": "",
          "type": "address"
        }
      ],
      "payable": false,
      "stateMutability": "view",
      "type": "function"
    },
    {
      "constant": true,
      "inputs": [],
      "name": "totalLotteries",
      "outputs": [
        {
          "name": "",
          "type": "uint256"
        }
      ],
      "payable": false,
      "stateMutability": "view",
      "type": "function"
    },
    {
      "constant": true,
      "inputs": [],
      "name": "token",
      "outputs": [
        {
          "name": "",
          "type": "address"
        }
      ],
      "payable": false,
      "stateMutability": "view",
      "type": "function"
    },
    {
      "inputs": [
        {
          "name": "_ticket",
          "type": "address"
        },
        {
          "name": "_token",
          "type": "address"
        }
      ],
      "payable": false,
      "stateMutability": "nonpayable",
      "type": "constructor"
    },
    {
      "anonymous": false,
      "inputs": [
        {
          "indexed": false,
          "name": "_lottery",
          "type": "address"
        }
      ],
      "name": "LotteryCreated",
      "type": "event"
    },
    {
      "constant": false,
      "inputs": [
        {
          "name": "_minDeposit",
          "type": "uint256"
        }
      ],
      "name": "createLottery",
      "outputs": [],
      "payable": false,
      "stateMutability": "nonpayable",
      "type": "function"
    },
    {
      "constant": true,
      "inputs": [
        {
          "name": "_lottery",
          "type": "address"
        }
      ],
      "name": "isLottery",
      "outputs": [
        {
          "name": "",
          "type": "bool"
        }
      ],
      "payable": false,
      "stateMutability": "view",
      "type": "function"
    }
  ],
  "bytecode": "0x60806040526000805534801561001457600080fd5b5060405160408061354083398101604052805160209091015160028054600160a060020a03938416600160a060020a031991821617909155600380549390921692169190911790556134d58061006b6000396000f30060806040526004361061006c5763ffffffff7c01000000000000000000000000000000000000000000000000000000006000350416636cc25db781146100715780638dd8c56d146100a2578063be345453146100bc578063f530bcab146100f1578063fc0c546a14610118575b600080fd5b34801561007d57600080fd5b5061008661012d565b60408051600160a060020a039092168252519081900360200190f35b3480156100ae57600080fd5b506100ba60043561013c565b005b3480156100c857600080fd5b506100dd600160a060020a036004351661020b565b604080519115158252519081900360200190f35b3480156100fd57600080fd5b50610106610229565b60408051918252519081900360200190f35b34801561012457600080fd5b5061008661022f565b600254600160a060020a031681565b6002546003546000913391600160a060020a0391821691168461015d61023e565b600160a060020a039485168152928416602084015292166040808301919091526060820192909252905190819003608001906000f0801580156101a4573d6000803e3d6000fd5b506000805460019081018255600160a060020a0383168083526020828152604093849020805460ff1916909317909255825190815291519293507fe610764cbcba803247df3450b7492f6a0084b7b5b734a7901c13fef8f84ffaf492918290030190a15050565b600160a060020a031660009081526001602052604090205460ff1690565b60005481565b600354600160a060020a031681565b60405161325b8061024f833901905600608060405260006003556001600555671bc16d674ec80000600d5534801561002657600080fd5b5060405160808061325b8339810160409081528151602083015191830151606090930151600e8054600160a060020a0319908116600160a060020a039485161790915560188054821694841694909417909355601980549093169190931617905560045569d3c21bcecceda1000000600f55690a968163f0a57b40000060105568056bc75e2d631000006011819055601255676124fee993bc00006013819055601455673782dace9d9000006015819055601655613172806100e96000396000f30060806040526004361061017c5763ffffffff60e060020a60003504166309ddc03c81146101815780630cc36c36146101fb5780631209b1f6146102315780631598165014610258578063218585211461027257806321d2e5ee146102a357806341b3d185146102f857806344bb3b2f1461030d57806348cd4cb114610322578063558473141461033757806366dbacc21461035957806368868cd8146103ac5780636b31ee01146103c15780636e1286fc146103d657806376cdb03b1461042b5780637a1fa867146104405780637bb2fdbf146104555780637e80c022146104aa5780638cdcbdef146104f25780638da5cb5b146105075780639211c7a31461051c578063970f04e91461053757806397ba287c1461057c578063a27cfc3614610591578063aa71d345146105a9578063b13439b6146105c1578063b403ae46146105e3578063b6f84332146105f8578063c53d071014610618578063dcd5de5814610630578063fa1e8f1b14610685578063fc0c546a1461069a575b600080fd5b34801561018d57600080fd5b506101996004356106af565b6040518084815260200183815260200180602001828103825283818151815260200191508051906020019060200280838360005b838110156101e55781810151838201526020016101cd565b5050505090500194505050505060405180910390f35b34801561020757600080fd5b50610213600435610740565b60408051938452602084019290925282820152519081900360600190f35b34801561023d57600080fd5b50610246610761565b60408051918252519081900360200190f35b34801561026457600080fd5b50610270600435610767565b005b34801561027e57600080fd5b5061028761078f565b60408051600160a060020a039092168252519081900360200190f35b3480156102af57600080fd5b50604080516020600480358082013583810280860185019096528085526102469536959394602494938501929182918501908490808284375094975061079e9650505050505050565b34801561030457600080fd5b50610246610c4a565b34801561031957600080fd5b50610246610c50565b34801561032e57600080fd5b50610246610c56565b34801561034357600080fd5b50610270600160c060020a031960043516610c5c565b34801561036557600080fd5b506040805160c081810190925261024691369160049160c4919083906006908390839080828437509396505060ff8435811695506020909401359093169250610d0e915050565b3480156103b857600080fd5b50610270610d5a565b3480156103cd57600080fd5b50610246610f5e565b3480156103e257600080fd5b506040805160206004803580820135838102808601850190965280855261027095369593946024949385019291829185019084908082843750949750610f649650505050505050565b34801561043757600080fd5b5061024661162c565b34801561044c57600080fd5b50610246611632565b34801561046157600080fd5b5060408051602060048035808201358381028086018501909652808552610246953695939460249493850192918291850190849080828437509497506116389650505050505050565b3480156104b657600080fd5b506040805160c0818101909252610270916004803592369260e49190602490600690839083908082843750939650509235935061192192505050565b3480156104fe57600080fd5b5061024661198b565b34801561051357600080fd5b50610287611991565b34801561052857600080fd5b506102706004356024356119a0565b34801561054357600080fd5b506040805161010081810190925261027091369160049161010491908390600890839083908082843750939650611c0f95505050505050565b34801561058857600080fd5b50610246611c37565b34801561059d57600080fd5b50610287600435611c3d565b3480156105b557600080fd5b50610246600435611c65565b3480156105cd57600080fd5b50610270600160c060020a031960043516611c84565b3480156105ef57600080fd5b50610246612017565b34801561060457600080fd5b50610270600480356024810191013561201d565b34801561062457600080fd5b50610246600435612525565b34801561063c57600080fd5b5060408051602060048035808201358381028086018501909652808552610270953695939460249493850192918291850190849080828437509497506125339650505050505050565b34801561069157600080fd5b50610270612955565b3480156106a657600080fd5b506102876129b9565b60008181526020818152604091829020600181015481546002909201805485518186028101860190965280865291949293606093929083018282801561073257602002820191906000526020600020906000905b825461010083900a900460ff168152602060019283018181049485019490930390920291018084116107035790505b505050505090509193909250565b60006020819052908152604090208054600182015460039092015490919083565b600d5481565b600e54600160a060020a0316331461077e57600080fd5b80151561078a57600080fd5b600d55565b601854600160a060020a031681565b60008060008060006107ae612fb3565b60008060008060008060009a505b8c518b1015610c3a576018548d51600160a060020a03909116906350b44712908f908e9081106107e857fe5b906020019060200201516040518263ffffffff1660e060020a02815260040180828152602001915050606060405180830381600087803b15801561082b57600080fd5b505af115801561083f573d6000803e3d6000fd5b505050506040513d606081101561085557600080fd5b5080516020820151604090920151909b509099509750600095505b60088610156108b45788866008811061088557fe5b60f860020a91901a81020487876008811061089c57fe5b60ff9092166020929092020152600190950194610870565b6001876006602002015160ff161115610947578c5160051015610947576040805160e560020a62461bcd02815260206004820152603160248201527f796f752063616e7420636865636b206d6f7265207468616e2035207469636b6560448201527f74732077697468206d756c746964726177000000000000000000000000000000606482015290519081900360840190fd5b600160a060020a038a16301461095c57600080fd5b8794505b60c087015160ff1688018510801561097a57506005548511155b80156109c2575060008581526020819052604081206002018054909190811061099f57fe5b60009182526020918290209181049091015460ff601f9092166101000a90041615155b15610c2f578460018e8d8151811015156109d857fe5b60209081029091010151815481106109ec57fe5b9060005260206000200154101515610a0357610c24565b5060009250829150819050805b6005811015610a7f576000858152602081905260409020600201805482908110610a3657fe5b60009182526020918290209181049091015460ff601f9092166101000a900416878260088110610a6257fe5b602002015160ff161415610a77576001909301925b600101610a10565b600085815260208190526040902060020180546005908110610a9d57fe5b60009182526020918290209181049091015460ff601f9092166101000a900416876005602002015160ff161415610ad5576001909201915b836005148015610ae3575082155b15610b0757600f5460e088015190925060ff1615610b02576002820291505b610c1f565b836004148015610b175750826001145b15610b4f57600f60015b015460e088015190925060ff1615610b02576000858152602081905260409020600301549190910290610c1f565b836004148015610b5d575082155b15610b6b57600f6002610b21565b836003148015610b7b5750826001145b15610b8957600f6003610b21565b836003148015610b97575082155b15610ba557600f6004610b21565b836002148015610bb55750826001145b15610bc357600f6005610b21565b836001148015610bd35750826001145b15610be157600f6006610b21565b83158015610bef5750826001145b15610c1f5760165460e088015190925060ff1615610c1f5760008581526020819052604090206003015491909102905b9a81019a5b600190940193610960565b6001909a01996107bc565b5050505050505050505050919050565b60045481565b60085481565b60065481565b601854600554604080517f6598bcde000000000000000000000000000000000000000000000000000000008152336004820152600160c060020a031985166024820152604481019290925251600160a060020a0390921691636598bcde9160648082019260009290919082900301818387803b158015610cdb57600080fd5b505af1158015610cef573d6000803e3d6000fd5b5050600554600090815260208190526040902080546001019055505050565b6000805b8260ff168160ff161015610d52578360ff16858260ff16600681101515610d3557fe5b602002015160ff161415610d4a576001909101905b600101610d12565b509392505050565b60035460055414610d6a57600080fd5b6008544311610dc3576040805160e560020a62461bcd02815260206004820152601a60248201527f53746f7020626c6f636b20776173206e6f742072656163686564000000000000604482015290519081900360640190fd5b600554600090815260208190526040812060020180549091908110610de457fe5b60009182526020918290209181049091015460ff601f9092166101000a900416151580610e155750600a5460ff0143115b1515610e2057600080fd5b6017546000108015610e3457506000600b54115b15610e4157610e416129c8565b601954604080517f70a082310000000000000000000000000000000000000000000000000000000081523060048201529051610ed992600160a060020a0316916370a082319160248083019260209291908290030181600087803b158015610ea857600080fd5b505af1158015610ebc573d6000803e3d6000fd5b505050506040513d6020811015610ed257600080fd5b5051612ab2565b60055460408051918252517fd7c376596e71409857b8470ffe14aa917861633cd93b369427a8d3040b41fc699181900360200190a160058054600101905560408051600680825260e08201909252906020820160c08038833950506005546000908152602081815260409091208351610f5b9460029092019350910190612fd3565b50565b600b5481565b6000806000806000610f74612fb3565b60008060008060008060009b5060009a505b8c518b1015611515576018548d51600160a060020a03909116906350b44712908f908e908110610fb257fe5b906020019060200201516040518263ffffffff1660e060020a02815260040180828152602001915050606060405180830381600087803b158015610ff557600080fd5b505af1158015611009573d6000803e3d6000fd5b505050506040513d606081101561101f57600080fd5b5080516020820151604090920151909b509099509750600095505b600886101561107e5788866008811061104f57fe5b60f860020a91901a81020487876008811061106657fe5b60ff909216602092909202015260019095019461103a565b6001876006602002015160ff161115611111578c5160051015611111576040805160e560020a62461bcd02815260206004820152603160248201527f796f752063616e7420636865636b206d6f7265207468616e2035207469636b6560448201527f74732077697468206d756c746964726177000000000000000000000000000000606482015290519081900360840190fd5b33600160a060020a0316601860009054906101000a9004600160a060020a0316600160a060020a0316636352211e8f8e81518110151561114d57fe5b906020019060200201516040518263ffffffff1660e060020a02815260040180828152602001915050602060405180830381600087803b15801561119057600080fd5b505af11580156111a4573d6000803e3d6000fd5b505050506040513d60208110156111ba57600080fd5b5051600160a060020a0316146111cf57600080fd5b600160a060020a038a1630146111e457600080fd5b8794505b60c087015160ff1688018510801561120257506005548511155b801561124a575060008581526020819052604081206002018054909190811061122757fe5b60009182526020918290209181049091015460ff601f9092166101000a90041615155b1561150a578460018e8d81518110151561126057fe5b602090810290910101518154811061127457fe5b906000526020600020015410151561128b576114ff565b5060009250829150819050805b60058110156113075760008581526020819052604090206002018054829081106112be57fe5b60009182526020918290209181049091015460ff601f9092166101000a9004168782600881106112ea57fe5b602002015160ff1614156112ff576001909301925b600101611298565b60008581526020819052604090206002018054600590811061132557fe5b60009182526020918290209181049091015460ff601f9092166101000a900416876005602002015160ff16141561135d576001909201915b83600514801561136b575082155b1561138f57600f5460e088015190925060ff161561138a576002820291505b6114a7565b83600414801561139f5750826001145b156113d757600f60015b015460e088015190925060ff161561138a5760008581526020819052604090206003015491909102906114a7565b8360041480156113e5575082155b156113f357600f60026113a9565b8360031480156114035750826001145b1561141157600f60036113a9565b83600314801561141f575082155b1561142d57600f60046113a9565b83600214801561143d5750826001145b1561144b57600f60056113a9565b83600114801561145b5750826001145b1561146957600f60066113a9565b831580156114775750826001145b156114a75760165460e088015190925060ff16156114a75760008581526020819052604090206003015491909102905b60008211156114ff57600085815260208190526040902060019081018054820190558d518691908f908e9081106114da57fe5b60209081029091010151815481106114ee57fe5b6000918252602090912001559a81019a5b6001909401936111e8565b6001909a0199610f86565b600c548c1061156e576040805160e560020a62461bcd02815260206004820152600860248201527f6e6f2066756e6473000000000000000000000000000000000000000000000000604482015290519081900360640190fd5b601954604080517fa9059cbb000000000000000000000000000000000000000000000000000000008152336004820152602481018f90529051600160a060020a039092169163a9059cbb916044808201926020929091908290030181600087803b1580156115db57600080fd5b505af11580156115ef573d6000803e3d6000fd5b505050506040513d602081101561160557600080fd5b5050600c5461161a908d63ffffffff612bef16565b600c5550505050505050505050505050565b600c5481565b60035481565b6000806000806000611648613075565b600080600080600098505b8a51891015611913576018548b51600160a060020a03909116906350b44712908d908c90811061167f57fe5b906020019060200201516040518263ffffffff1660e060020a02815260040180828152602001915050606060405180830381600087803b1580156116c257600080fd5b505af11580156116d6573d6000803e3d6000fd5b505050506040513d60608110156116ec57600080fd5b50805160208201516040909201519099509097509550600093505b600784101561174b5786846008811061171c57fe5b60f860020a91901a81020485856007811061173357fe5b60ff9092166020929092020152600190930192611707565b600160a060020a038816301461176057600080fd5b60055486111580156117805750846006602002015160ff16860160055411155b151561178b57600080fd5b60055460028c8b81518110151561179e57fe5b60209081029091010151815481106117b257fe5b9060005260206000200154141515156117ca57600080fd5b6005546000908152602081905260408120600201805490919081106117eb57fe5b60009182526020918290209181049091015460ff601f9092166101000a900416151561181657600080fd5b5060009150819050805b600581101561189257600554600090815260208190526040902060020180548290811061184957fe5b60009182526020918290209181049091015460ff601f9092166101000a90041685826007811061187557fe5b602002015160ff16141561188a576001909201915b600101611820565b600580546000908152602081905260409020600201805490919081106118b457fe5b60009182526020918290209181049091015460ff601f9092166101000a900416856005602002015160ff1614156118ec576001909101905b8260051480156118fc5750816001145b15611908576001909901985b600190980197611653565b505050505050505050919050565b600083815260208190526040902061193e90600201836006612fd3565b5060008381526020818152604091829020600301839055815185815291517f014a2f55694ce7098b97b9cde6cb602bf573889b6020a905963b0bfca91d59dd9281900390910190a1505050565b60095481565b600e54600160a060020a031681565b600e54600160a060020a031633146119b757600080fd5b600354600101600554141515611a17576040805160e560020a62461bcd02815260206004820152601560248201527f44726177206d7573742062652066696e69736865640000000000000000000000604482015290519081900360640190fd5b60048054601954604080517f70a082310000000000000000000000000000000000000000000000000000000081523094810194909452519192600160a060020a03909116916370a08231916024808201926020929091908290030181600087803b158015611a8457600080fd5b505af1158015611a98573d6000803e3d6000fd5b505050506040513d6020811015611aae57600080fd5b50511015611b06576040805160e560020a62461bcd02815260206004820181905260248201527f496e737566696369656e7420616d6f756e74206f662042455420746f6b656e73604482015290519081900360640190fd5b4382118015611b1457508181115b1515611b6a576040805160e560020a62461bcd02815260206004820152600c60248201527f57726f6e6720626c6f636b730000000000000000000000000000000000000000604482015290519081900360640190fd5b611b7b82600263ffffffff612c0616565b600a556008819055600782905560408051600680825260e08201909252906020820160c08038833950506005546000908152602081815260409091208351611bcc9460029092019350910190612fd3565b5060035460408051918252517fcbe711f8302c26b5ddca13414a18ce69881f2cc33092614bed6871a8a63a94af9181900360200190a15050600380546001019055565b600e54600160a060020a03163314611c2657600080fd5b611c33600f826008613094565b5050565b60055481565b6017805482908110611c4b57fe5b600091825260209091200154600160a060020a0316905081565b6002805482908110611c7357fe5b600091825260209091200154905081565b600080600060075443101515611ce4576040805160e560020a62461bcd02815260206004820152600f60248201527f53656c6c2077617320636c6f7365640000000000000000000000000000000000604482015290519081900360640190fd5b60055460ff60f860020a600687901a81020416031580611d1b57506005548460061a60f860020a0260f860020a900460ff16036004145b80611d3d57506005548460061a60f860020a0260f860020a900460ff16036009145b80611d5f57506005548460061a60f860020a0260f860020a900460ff16036018145b80611d8157506005548460061a60f860020a0260f860020a900460ff16036033145b1515611dd7576040805160e560020a62461bcd02815260206004820152600a60248201527f3520313020323520353200000000000000000000000000000000000000000000604482015290519081900360640190fd5b5050600d5460f860020a600684901a81028190049250600784901a027fff00000000000000000000000000000000000000000000000000000000000000161580159160ff84160290611e27576002025b601954604080517f23b872dd000000000000000000000000000000000000000000000000000000008152336004820152306024820152604481018490529051600160a060020a03909216916323b872dd916064808201926020929091908290030181600087803b158015611e9a57600080fd5b505af1158015611eae573d6000803e3d6000fd5b505050506040513d6020811015611ec457600080fd5b50511515611ed157600080fd5b601854600554604080517f6598bcde000000000000000000000000000000000000000000000000000000008152336004820152600160c060020a031988166024820152604481019290925251600160a060020a0390921691636598bcde9160648082019260009290919082900301818387803b158015611f5057600080fd5b505af1158015611f64573d6000803e3d6000fd5b505060018054808201825560007fb10e2d527612073b26eecdfd717e6a320cf44b4afac2b0732d9fcbe2b7fa0cf6909101819055600280548084019091557f405787fa12a823e0f2b7631cc41b3ba8828b3321ca811111fa75cd3aa3bb5ace018190556005548152602081905260409020805490910190555050600c54611ff1908263ffffffff612c0616565b600c81905561200e90670de0b6b3a764000063ffffffff612c0616565b600c5550505050565b60075481565b60008080600f8411156120a0576040805160e560020a62461bcd02815260206004820152602c60248201527f43616e6e6f74207075726368617365206d6f7265207468616e2031352074696360448201527f6b657473206174206f6e63650000000000000000000000000000000000000000606482015290519081900360840190fd5b60075443106120f9576040805160e560020a62461bcd02815260206004820152600f60248201527f53656c6c2077617320636c6f7365640000000000000000000000000000000000604482015290519081900360640190fd5b600091505b838210156124475760055485858481811061211557fe5b90506020020135600160c060020a031916600660088110151561213457fe5b1a60f860020a0260f860020a900460ff160360001480612193575060055485858481811061215e57fe5b90506020020135600160c060020a031916600660088110151561217d57fe5b1a60f860020a0260f860020a900460ff16036004145b806121dd57506005548585848181106121a857fe5b90506020020135600160c060020a03191660066008811015156121c757fe5b1a60f860020a0260f860020a900460ff16036009145b8061222757506005548585848181106121f257fe5b90506020020135600160c060020a031916600660088110151561221157fe5b1a60f860020a0260f860020a900460ff16036018145b80612271575060055485858481811061223c57fe5b90506020020135600160c060020a031916600660088110151561225b57fe5b1a60f860020a0260f860020a900460ff16036033145b15156122c7576040805160e560020a62461bcd02815260206004820152600a60248201527f3520313020323520353200000000000000000000000000000000000000000000604482015290519081900360640190fd5b600d548585848181106122d657fe5b90506020020135600160c060020a03191660066008811015156122f557fe5b1a60f860020a0260f860020a900460ff16029050848483818110151561231757fe5b90506020020135600160c060020a031916600760088110151561233657fe5b5050601854600160a060020a0316636598bcde3387878681811061235657fe5b6005546040805160e060020a63ffffffff8916028152600160a060020a039096166004870152600160c060020a03196020909302949094013591909116602485015260448401525051606480830192600092919082900301818387803b1580156123bf57600080fd5b505af11580156123d3573d6000803e3d6000fd5b505060018054808201825560007fb10e2d527612073b26eecdfd717e6a320cf44b4afac2b0732d9fcbe2b7fa0cf69091018190556002805480840182559082527f405787fa12a823e0f2b7631cc41b3ba8828b3321ca811111fa75cd3aa3bb5ace0155948301949390930192506120fe9050565b601954604080517f23b872dd000000000000000000000000000000000000000000000000000000008152336004820152306024820152604481018690529051600160a060020a03909216916323b872dd916064808201926020929091908290030181600087803b1580156124ba57600080fd5b505af11580156124ce573d6000803e3d6000fd5b505050506040513d60208110156124e457600080fd5b505115156124f157600080fd5b6005546000908152602081905260409020805485019055600c5461251b908463ffffffff612c0616565b600c555050505050565b6001805482908110611c7357fe5b600080600080612541613075565b600080600080600098505b8951891015612949576018548a51600160a060020a03909116906350b44712908c908c90811061257857fe5b906020019060200201516040518263ffffffff1660e060020a02815260040180828152602001915050606060405180830381600087803b1580156125bb57600080fd5b505af11580156125cf573d6000803e3d6000fd5b505050506040513d60608110156125e557600080fd5b50805160208201516040909201519099509097509550600093505b60078410156126445786846008811061261557fe5b60f860020a91901a81020485856007811061262c57fe5b60ff9092166020929092020152600190930192612600565b6018548a513391600160a060020a031690636352211e908d908d90811061266757fe5b906020019060200201516040518263ffffffff1660e060020a02815260040180828152602001915050602060405180830381600087803b1580156126aa57600080fd5b505af11580156126be573d6000803e3d6000fd5b505050506040513d60208110156126d457600080fd5b5051600160a060020a0316146126e957600080fd5b600160a060020a03881630146126fe57600080fd5b600554861115801561271e5750846006602002015160ff16860160055411155b151561272957600080fd5b60055460028b8b81518110151561273c57fe5b602090810290910101518154811061275057fe5b90600052602060002001541415151561276857600080fd5b60055460009081526020819052604081206002018054909190811061278957fe5b60009182526020918290209181049091015460ff601f9092166101000a90041615156127b457600080fd5b5060009150819050805b60058110156128305760055460009081526020819052604090206002018054829081106127e757fe5b60009182526020918290209181049091015460ff601f9092166101000a90041685826007811061281357fe5b602002015160ff161415612828576001909201915b6001016127be565b6005805460009081526020819052604090206002018054909190811061285257fe5b60009182526020918290209181049091015460ff601f9092166101000a900416856005602002015160ff16141561288a576001909101905b82600514801561289a5750816001145b156128ef57601780546001810182556000919091527fc624b66cc0138b8fabc209247f72d758e1cf3343756d543badbf24212bed8c1501805473ffffffffffffffffffffffffffffffffffffffff1916331790555b60055460028b8b81518110151561290257fe5b602090810290910101518154811061291657fe5b6000918252602080832090910192909255600554815290819052604090206001908101805482019055989098019761254c565b50505050505050505050565b600e54600160a060020a0316331461296c57600080fd5b612977600554612c13565b6005546000908152602081905260409020612999916002909101906006612fd3565b506129a2612dbd565b600554600090815260208190526040902060030155565b601954600160a060020a031681565b601754600b5460009182918115156129dc57fe5b049150600090505b601754811015612a9d5760195460178054600160a060020a039092169163a9059cbb919084908110612a1257fe5b60009182526020808320909101546040805160e060020a63ffffffff8716028152600160a060020a039092166004830152602482018890525160448083019491928390030190829087803b158015612a6957600080fd5b505af1158015612a7d573d6000803e3d6000fd5b505050506040513d6020811015612a9357600080fd5b50506001016129e4565b612aa9601760006130ce565b50506000600b55565b600080600080670de0b6b3a7640000851015612acd57612be8565b600b54612ae190869063ffffffff612bef16565b9350612b076103e8612afb866101a463ffffffff612edc16565b9063ffffffff612f0516565b9250612b216103e8612afb866101a463ffffffff612edc16565b9150612b3a6103e8612afb8660a063ffffffff612edc16565b600c849055600b805484019055601954600e54604080517fa9059cbb000000000000000000000000000000000000000000000000000000008152600160a060020a03928316600482015260248101859052905193945091169163a9059cbb916044808201926020929091908290030181600087803b158015612bbb57600080fd5b505af1158015612bcf573d6000803e3d6000fd5b505050506040513d6020811015612be557600080fd5b50505b5050505050565b600082821115612bfb57fe5b508082035b92915050565b81810182811015612c0057fe5b612c1b6130ec565b612c236130ec565b600083815260208190526040812060020180548291829182908110612c4457fe5b60009182526020918290209181049091015460ff601f9092166101000a90041615612cb9576040805160e560020a62461bcd02815260206004820152601e60248201527f57696e20636f6d62696e6174696f6e20697320616c7265616479207365740000604482015290519081900360640190fd5b600a5443118015612cce5750600a5460ff0143105b1515612d24576040805160e560020a62461bcd02815260206004820152601260248201527f57726f6e6720626c6f636b206e756d6265720000000000000000000000000000604482015290519081900360640190fd5b60009250600091505b60058360ff161015612d9b57612d53604560018460ff168660ff16600a54030303612f1a565b9050612d6184826005610d0e565b1515612d8f57808460ff851660068110612d7757fe5b60ff9092166020929092020152600190920191612d96565b6001909101905b612d2d565b612dab601a6001600a5403612f1a565b60ff1660a08501525091949350505050565b60408051436020808301919091526c010000000000000000000000003302828401528251603481840301815260549092019283905281516000938493602b93909282918401908083835b60208310612e265780518252601f199092019160209182019101612e07565b5181516020939093036101000a6000190180199091169216919091179052604051920182900390912061ffff1692505050811515612e6057fe5b06905060028161ffff16108015612e8357506a7c13bc4b2c133c56000000600b54105b15612e915760059150612ed8565b60048161ffff161015612ea75760049150612ed8565b60078161ffff161015612ebd5760039150612ed8565b60148161ffff161015612ed35760029150612ed8565b600191505b5090565b6000821515612eed57506000612c00565b50818102818382811515612efd57fe5b0414612c0057fe5b60008183811515612f1257fe5b049392505050565b604080518240602080830191909152825180830382018152918301928390528151600093918291908401908083835b60208310612f685780518252601f199092019160209182019101612f49565b5181516020939093036101000a600019018019909116921691909117905260405192018290039091209350505060ff84811691508216811515612fa757fe5b06600101905092915050565b610100604051908101604052806008906020820280388339509192915050565b82805482825590600052602060002090601f016020900481019282156130695791602002820160005b8382111561303a57835183826101000a81548160ff021916908360ff1602179055509260200192600101602081600001049283019260010302612ffc565b80156130675782816101000a81549060ff021916905560010160208160000104928301926001030261303a565b505b50612ed892915061310b565b60e0604051908101604052806007906020820280388339509192915050565b82600881019282156130c2579160200282015b828111156130c25782518255916020019190600101906130a7565b50612ed892915061312c565b5080546000825590600052602060002090810190610f5b919061312c565b60c0604051908101604052806006906020820280388339509192915050565b61312991905b80821115612ed857805460ff19168155600101613111565b90565b61312991905b80821115612ed857600081556001016131325600a165627a7a7230582013db5148ee452fcd74b0066722e8fc7e5876d0efd85fbd6c5e91f8da54e551040029a165627a7a723058201ddc7669f0166997bbc91fcb04da07d43a60c9e232346e00c1a30898a1bd217a0029",
  "source": "pragma solidity ^0.4.24;\n\nimport \"./Lottery.sol\";\nimport \"./ERC20.sol\";\nimport \"./Tickets.sol\";\n\n/**  \n * @title Lottery Factory\n */ \ncontract LotteryFactory {\n\n\t/** @dev Emits when new lottery was created */\n\tevent LotteryCreated(address _lottery);\n\n\t/** @dev Count total lottery contract */\n\tuint public totalLotteries = 0; \n\t\n\t/** @dev Mapping where lotteries are stored */\n\tmapping (address => bool) lotteries;\n\n\t/** @dev Address of the ticket ERC721 token */\n\taddress public ticket;\n\n\t/** @dev Address of the BET token */\n\tERC20 public token;\n\n\tconstructor(address _ticket, address _token) public {\n\t\tticket = Tickets(_ticket);\n\t\ttoken = ERC20(_token);\n\t} \n\n    /**\n     * @dev Creates new lottery contract\n\t * @param _minDeposit Min amount of funds to create new draw in lottery\n     */\n\tfunction createLottery(uint _minDeposit) external {\n\t\t//todo _minDeposit != 0\n\t\taddress newLottery = new Lottery(msg.sender, ticket, token, _minDeposit);\n\t\ttotalLotteries++;\n\t\tlotteries[newLottery] = true;\n\n\t\temit LotteryCreated(newLottery);\n\t}\n\t\n\t/** @return Returns true if address is lottery */\n\tfunction isLottery(address _lottery) external view returns (bool) {\n\t    return lotteries[_lottery];\n\t}\n}\n",
  "sourcePath": "/home/sirvadim/deploy_lottery/LotteryGame/contracts/LotteryFactory.sol",
  "compiler": {
    "name": "solc",
    "version": "0.4.25+commit.59dbf8f1.Emscripten.clang"
  },
  "schemaVersion": "3.0.0-beta.1",
  "updatedAt": "2018-12-12T10:51:25.396Z"
}