{
  "contractName": "Lottery",
  "abi": [
    {
      "constant": true,
      "inputs": [
        {
          "name": "",
          "type": "uint256"
        }
      ],
      "name": "draws",
      "outputs": [
        {
          "name": "ticketCount",
          "type": "uint256"
        },
        {
          "name": "winnerCount",
          "type": "uint256"
        },
        {
          "name": "multiplier",
          "type": "uint256"
        }
      ],
      "payable": false,
      "stateMutability": "view",
      "type": "function"
    },
    {
      "constant": true,
      "inputs": [],
      "name": "ticketPrice",
      "outputs": [
        {
          "name": "",
          "type": "uint256"
        }
      ],
      "payable": false,
      "stateMutability": "view",
      "type": "function"
    },
    {
      "constant": true,
      "inputs": [],
      "name": "tickets",
      "outputs": [
        {
          "name": "",
          "type": "address"
        }
      ],
      "payable": false,
      "stateMutability": "view",
      "type": "function"
    },
    {
      "constant": true,
      "inputs": [],
      "name": "minDeposit",
      "outputs": [
        {
          "name": "",
          "type": "uint256"
        }
      ],
      "payable": false,
      "stateMutability": "view",
      "type": "function"
    },
    {
      "constant": true,
      "inputs": [],
      "name": "stopBlock",
      "outputs": [
        {
          "name": "",
          "type": "uint256"
        }
      ],
      "payable": false,
      "stateMutability": "view",
      "type": "function"
    },
    {
      "constant": true,
      "inputs": [],
      "name": "startBlock",
      "outputs": [
        {
          "name": "",
          "type": "uint256"
        }
      ],
      "payable": false,
      "stateMutability": "view",
      "type": "function"
    },
    {
      "constant": true,
      "inputs": [],
      "name": "jackpot",
      "outputs": [
        {
          "name": "",
          "type": "uint256"
        }
      ],
      "payable": false,
      "stateMutability": "view",
      "type": "function"
    },
    {
      "constant": true,
      "inputs": [],
      "name": "bank",
      "outputs": [
        {
          "name": "",
          "type": "uint256"
        }
      ],
      "payable": false,
      "stateMutability": "view",
      "type": "function"
    },
    {
      "constant": true,
      "inputs": [],
      "name": "drawsCount",
      "outputs": [
        {
          "name": "",
          "type": "uint256"
        }
      ],
      "payable": false,
      "stateMutability": "view",
      "type": "function"
    },
    {
      "constant": true,
      "inputs": [],
      "name": "closeBlock",
      "outputs": [
        {
          "name": "",
          "type": "uint256"
        }
      ],
      "payable": false,
      "stateMutability": "view",
      "type": "function"
    },
    {
      "constant": true,
      "inputs": [],
      "name": "owner",
      "outputs": [
        {
          "name": "",
          "type": "address"
        }
      ],
      "payable": false,
      "stateMutability": "view",
      "type": "function"
    },
    {
      "constant": true,
      "inputs": [],
      "name": "currentDraw",
      "outputs": [
        {
          "name": "",
          "type": "uint256"
        }
      ],
      "payable": false,
      "stateMutability": "view",
      "type": "function"
    },
    {
      "constant": true,
      "inputs": [
        {
          "name": "",
          "type": "uint256"
        }
      ],
      "name": "jackpotWinners",
      "outputs": [
        {
          "name": "",
          "type": "address"
        }
      ],
      "payable": false,
      "stateMutability": "view",
      "type": "function"
    },
    {
      "constant": true,
      "inputs": [
        {
          "name": "",
          "type": "uint256"
        }
      ],
      "name": "checkedJackpot",
      "outputs": [
        {
          "name": "",
          "type": "uint256"
        }
      ],
      "payable": false,
      "stateMutability": "view",
      "type": "function"
    },
    {
      "constant": true,
      "inputs": [],
      "name": "sellBlock",
      "outputs": [
        {
          "name": "",
          "type": "uint256"
        }
      ],
      "payable": false,
      "stateMutability": "view",
      "type": "function"
    },
    {
      "constant": true,
      "inputs": [
        {
          "name": "",
          "type": "uint256"
        }
      ],
      "name": "lastCheckedDrawById",
      "outputs": [
        {
          "name": "",
          "type": "uint256"
        }
      ],
      "payable": false,
      "stateMutability": "view",
      "type": "function"
    },
    {
      "constant": true,
      "inputs": [],
      "name": "token",
      "outputs": [
        {
          "name": "",
          "type": "address"
        }
      ],
      "payable": false,
      "stateMutability": "view",
      "type": "function"
    },
    {
      "inputs": [
        {
          "name": "_owner",
          "type": "address"
        },
        {
          "name": "_tickets",
          "type": "address"
        },
        {
          "name": "_token",
          "type": "address"
        },
        {
          "name": "_minDeposit",
          "type": "uint256"
        }
      ],
      "payable": false,
      "stateMutability": "nonpayable",
      "type": "constructor"
    },
    {
      "anonymous": false,
      "inputs": [
        {
          "indexed": false,
          "name": "_drawId",
          "type": "uint256"
        }
      ],
      "name": "DrawCreated",
      "type": "event"
    },
    {
      "anonymous": false,
      "inputs": [
        {
          "indexed": false,
          "name": "_drawId",
          "type": "uint256"
        }
      ],
      "name": "DrawFinished",
      "type": "event"
    },
    {
      "anonymous": false,
      "inputs": [
        {
          "indexed": false,
          "name": "_drawId",
          "type": "uint256"
        }
      ],
      "name": "CombinationSet",
      "type": "event"
    },
    {
      "constant": false,
      "inputs": [
        {
          "name": "_price",
          "type": "uint256"
        }
      ],
      "name": "setTicketPrice",
      "outputs": [],
      "payable": false,
      "stateMutability": "nonpayable",
      "type": "function"
    },
    {
      "constant": false,
      "inputs": [
        {
          "name": "_sellOverBlock",
          "type": "uint256"
        },
        {
          "name": "_stopLotteryBlock",
          "type": "uint256"
        }
      ],
      "name": "createDraw",
      "outputs": [],
      "payable": false,
      "stateMutability": "nonpayable",
      "type": "function"
    },
    {
      "constant": false,
      "inputs": [],
      "name": "finishDraw",
      "outputs": [],
      "payable": false,
      "stateMutability": "nonpayable",
      "type": "function"
    },
    {
      "constant": false,
      "inputs": [],
      "name": "stopDraw",
      "outputs": [],
      "payable": false,
      "stateMutability": "nonpayable",
      "type": "function"
    },
    {
      "constant": true,
      "inputs": [
        {
          "name": "_drawId",
          "type": "uint256"
        }
      ],
      "name": "getDrawStats",
      "outputs": [
        {
          "name": "_winnerCount",
          "type": "uint256"
        },
        {
          "name": "_ticketCount",
          "type": "uint256"
        },
        {
          "name": "_winCombination",
          "type": "uint8[]"
        }
      ],
      "payable": false,
      "stateMutability": "view",
      "type": "function"
    },
    {
      "constant": true,
      "inputs": [
        {
          "name": "_ids",
          "type": "uint256[]"
        }
      ],
      "name": "solveReward",
      "outputs": [
        {
          "name": "_total",
          "type": "uint256"
        }
      ],
      "payable": false,
      "stateMutability": "view",
      "type": "function"
    },
    {
      "constant": false,
      "inputs": [
        {
          "name": "_ids",
          "type": "uint256[]"
        }
      ],
      "name": "getReward",
      "outputs": [],
      "payable": false,
      "stateMutability": "nonpayable",
      "type": "function"
    },
    {
      "constant": true,
      "inputs": [
        {
          "name": "_ids",
          "type": "uint256[]"
        }
      ],
      "name": "solveJackpot",
      "outputs": [
        {
          "name": "_numOfJackpotTickets",
          "type": "uint256"
        }
      ],
      "payable": false,
      "stateMutability": "view",
      "type": "function"
    },
    {
      "constant": false,
      "inputs": [
        {
          "name": "_ids",
          "type": "uint256[]"
        }
      ],
      "name": "getJackpot",
      "outputs": [],
      "payable": false,
      "stateMutability": "nonpayable",
      "type": "function"
    },
    {
      "constant": false,
      "inputs": [
        {
          "name": "data",
          "type": "bytes8"
        }
      ],
      "name": "buyTicket",
      "outputs": [],
      "payable": false,
      "stateMutability": "nonpayable",
      "type": "function"
    },
    {
      "constant": false,
      "inputs": [
        {
          "name": "_data",
          "type": "bytes8[]"
        }
      ],
      "name": "buyFewTickets",
      "outputs": [],
      "payable": false,
      "stateMutability": "nonpayable",
      "type": "function"
    },
    {
      "constant": false,
      "inputs": [
        {
          "name": "_multipliers",
          "type": "uint256[8]"
        }
      ],
      "name": "setMultipliers",
      "outputs": [],
      "payable": false,
      "stateMutability": "nonpayable",
      "type": "function"
    },
    {
      "constant": true,
      "inputs": [
        {
          "name": "array",
          "type": "uint8[6]"
        },
        {
          "name": "value",
          "type": "uint8"
        },
        {
          "name": "len",
          "type": "uint8"
        }
      ],
      "name": "contains",
      "outputs": [
        {
          "name": "_amount",
          "type": "uint256"
        }
      ],
      "payable": false,
      "stateMutability": "pure",
      "type": "function"
    },
    {
      "constant": false,
      "inputs": [
        {
          "name": "_drawId",
          "type": "uint256"
        },
        {
          "name": "_numbers",
          "type": "uint8[6]"
        },
        {
          "name": "multiplier",
          "type": "uint256"
        }
      ],
      "name": "setCombination",
      "outputs": [],
      "payable": false,
      "stateMutability": "nonpayable",
      "type": "function"
    },
    {
      "constant": false,
      "inputs": [
        {
          "name": "data",
          "type": "bytes8"
        }
      ],
      "name": "createTicket",
      "outputs": [],
      "payable": false,
      "stateMutability": "nonpayable",
      "type": "function"
    }
  ],
  "bytecode": "0x608060405260006003556001600555671bc16d674ec80000600d5534801561002657600080fd5b506040516080806132f18339810160409081528151602083015191830151606090930151600e8054600160a060020a0319908116600160a060020a039485161790915560188054821694841694909417909355601980549093169190931617905560045569d3c21bcecceda1000000600f55690a968163f0a57b40000060105568056bc75e2d631000006011819055601255676124fee993bc00006013819055601455673782dace9d9000006015819055601655613208806100e96000396000f30060806040526004361061017c5763ffffffff60e060020a60003504166309ddc03c81146101815780630cc36c36146101fb5780631209b1f6146102315780631598165014610258578063218585211461027257806321d2e5ee146102a357806341b3d185146102f857806344bb3b2f1461030d57806348cd4cb114610322578063558473141461033757806366dbacc21461035957806368868cd8146103ac5780636b31ee01146103c15780636e1286fc146103d657806376cdb03b1461042b5780637a1fa867146104405780637bb2fdbf146104555780637e80c022146104aa5780638cdcbdef146104f25780638da5cb5b146105075780639211c7a31461051c578063970f04e91461053757806397ba287c1461057c578063a27cfc3614610591578063aa71d345146105a9578063b13439b6146105c1578063b403ae46146105e3578063b6f84332146105f8578063c53d071014610618578063dcd5de5814610630578063fa1e8f1b14610685578063fc0c546a1461069a575b600080fd5b34801561018d57600080fd5b506101996004356106af565b6040518084815260200183815260200180602001828103825283818151815260200191508051906020019060200280838360005b838110156101e55781810151838201526020016101cd565b5050505090500194505050505060405180910390f35b34801561020757600080fd5b50610213600435610740565b60408051938452602084019290925282820152519081900360600190f35b34801561023d57600080fd5b50610246610761565b60408051918252519081900360200190f35b34801561026457600080fd5b50610270600435610767565b005b34801561027e57600080fd5b5061028761078f565b60408051600160a060020a039092168252519081900360200190f35b3480156102af57600080fd5b50604080516020600480358082013583810280860185019096528085526102469536959394602494938501929182918501908490808284375094975061079e9650505050505050565b34801561030457600080fd5b50610246610c4a565b34801561031957600080fd5b50610246610c50565b34801561032e57600080fd5b50610246610c56565b34801561034357600080fd5b50610270600160c060020a031960043516610c5c565b34801561036557600080fd5b506040805160c081810190925261024691369160049160c4919083906006908390839080828437509396505060ff8435811695506020909401359093169250610d0e915050565b3480156103b857600080fd5b50610270610d5a565b3480156103cd57600080fd5b50610246610f5e565b3480156103e257600080fd5b506040805160206004803580820135838102808601850190965280855261027095369593946024949385019291829185019084908082843750949750610f649650505050505050565b34801561043757600080fd5b5061024661165f565b34801561044c57600080fd5b50610246611665565b34801561046157600080fd5b50604080516020600480358082013583810280860185019096528085526102469536959394602494938501929182918501908490808284375094975061166b9650505050505050565b3480156104b657600080fd5b506040805160c0818101909252610270916004803592369260e49190602490600690839083908082843750939650509235935061195492505050565b3480156104fe57600080fd5b506102466119be565b34801561051357600080fd5b506102876119c4565b34801561052857600080fd5b506102706004356024356119d3565b34801561054357600080fd5b506040805161010081810190925261027091369160049161010491908390600890839083908082843750939650611ce495505050505050565b34801561058857600080fd5b50610246611d08565b34801561059d57600080fd5b50610287600435611d0e565b3480156105b557600080fd5b50610246600435611d36565b3480156105cd57600080fd5b50610270600160c060020a031960043516611d55565b3480156105ef57600080fd5b506102466120bd565b34801561060457600080fd5b5061027060048035602481019101356120c3565b34801561062457600080fd5b506102466004356125bb565b34801561063c57600080fd5b5060408051602060048035808201358381028086018501909652808552610270953695939460249493850192918291850190849080828437509497506125c99650505050505050565b34801561069157600080fd5b506102706129eb565b3480156106a657600080fd5b50610287612a4f565b60008181526020818152604091829020600181015481546002909201805485518186028101860190965280865291949293606093929083018282801561073257602002820191906000526020600020906000905b825461010083900a900460ff168152602060019283018181049485019490930390920291018084116107035790505b505050505090509193909250565b60006020819052908152604090208054600182015460039092015490919083565b600d5481565b600e54600160a060020a0316331461077e57600080fd5b80151561078a57600080fd5b600d55565b601854600160a060020a031681565b60008060008060006107ae613049565b60008060008060008060009a505b8c518b1015610c3a576018548d51600160a060020a03909116906350b44712908f908e9081106107e857fe5b906020019060200201516040518263ffffffff1660e060020a02815260040180828152602001915050606060405180830381600087803b15801561082b57600080fd5b505af115801561083f573d6000803e3d6000fd5b505050506040513d606081101561085557600080fd5b5080516020820151604090920151909b509099509750600095505b60088610156108b45788866008811061088557fe5b60f860020a91901a81020487876008811061089c57fe5b60ff9092166020929092020152600190950194610870565b6001876006602002015160ff161115610947578c5160051015610947576040805160e560020a62461bcd02815260206004820152603160248201527f796f752063616e7420636865636b206d6f7265207468616e2035207469636b6560448201527f74732077697468206d756c746964726177000000000000000000000000000000606482015290519081900360840190fd5b600160a060020a038a16301461095c57600080fd5b8794505b60c087015160ff1688018510801561097a57506005548511155b80156109c2575060008581526020819052604081206002018054909190811061099f57fe5b60009182526020918290209181049091015460ff601f9092166101000a90041615155b15610c2f578460018e8d8151811015156109d857fe5b60209081029091010151815481106109ec57fe5b9060005260206000200154101515610a0357610c24565b5060009250829150819050805b6005811015610a7f576000858152602081905260409020600201805482908110610a3657fe5b60009182526020918290209181049091015460ff601f9092166101000a900416878260088110610a6257fe5b602002015160ff161415610a77576001909301925b600101610a10565b600085815260208190526040902060020180546005908110610a9d57fe5b60009182526020918290209181049091015460ff601f9092166101000a900416876005602002015160ff161415610ad5576001909201915b836005148015610ae3575082155b15610b0757600f5460e088015190925060ff1615610b02576002820291505b610c1f565b836004148015610b175750826001145b15610b4f57600f60015b015460e088015190925060ff1615610b02576000858152602081905260409020600301549190910290610c1f565b836004148015610b5d575082155b15610b6b57600f6002610b21565b836003148015610b7b5750826001145b15610b8957600f6003610b21565b836003148015610b97575082155b15610ba557600f6004610b21565b836002148015610bb55750826001145b15610bc357600f6005610b21565b836001148015610bd35750826001145b15610be157600f6006610b21565b83158015610bef5750826001145b15610c1f5760165460e088015190925060ff1615610c1f5760008581526020819052604090206003015491909102905b9a81019a5b600190940193610960565b6001909a01996107bc565b5050505050505050505050919050565b60045481565b60085481565b60065481565b601854600554604080517f6598bcde000000000000000000000000000000000000000000000000000000008152336004820152600160c060020a031985166024820152604481019290925251600160a060020a0390921691636598bcde9160648082019260009290919082900301818387803b158015610cdb57600080fd5b505af1158015610cef573d6000803e3d6000fd5b5050600554600090815260208190526040902080546001019055505050565b6000805b8260ff168160ff161015610d52578360ff16858260ff16600681101515610d3557fe5b602002015160ff161415610d4a576001909101905b600101610d12565b509392505050565b60035460055414610d6a57600080fd5b6008544311610dc3576040805160e560020a62461bcd02815260206004820152601a60248201527f53746f7020626c6f636b20776173206e6f742072656163686564000000000000604482015290519081900360640190fd5b600554600090815260208190526040812060020180549091908110610de457fe5b60009182526020918290209181049091015460ff601f9092166101000a900416151580610e155750600a5460ff0143115b1515610e2057600080fd5b6017546000108015610e3457506000600b54115b15610e4157610e41612a5e565b601954604080517f70a082310000000000000000000000000000000000000000000000000000000081523060048201529051610ed992600160a060020a0316916370a082319160248083019260209291908290030181600087803b158015610ea857600080fd5b505af1158015610ebc573d6000803e3d6000fd5b505050506040513d6020811015610ed257600080fd5b5051612b48565b60055460408051918252517fd7c376596e71409857b8470ffe14aa917861633cd93b369427a8d3040b41fc699181900360200190a160058054600101905560408051600680825260e08201909252906020820160c08038833950506005546000908152602081815260409091208351610f5b9460029092019350910190613069565b50565b600b5481565b6000806000806000610f74613049565b60008060008060008060009b5060009a505b8c518b1015611515576018548d51600160a060020a03909116906350b44712908f908e908110610fb257fe5b906020019060200201516040518263ffffffff1660e060020a02815260040180828152602001915050606060405180830381600087803b158015610ff557600080fd5b505af1158015611009573d6000803e3d6000fd5b505050506040513d606081101561101f57600080fd5b5080516020820151604090920151909b509099509750600095505b600886101561107e5788866008811061104f57fe5b60f860020a91901a81020487876008811061106657fe5b60ff909216602092909202015260019095019461103a565b6001876006602002015160ff161115611111578c5160051015611111576040805160e560020a62461bcd02815260206004820152603160248201527f796f752063616e7420636865636b206d6f7265207468616e2035207469636b6560448201527f74732077697468206d756c746964726177000000000000000000000000000000606482015290519081900360840190fd5b33600160a060020a0316601860009054906101000a9004600160a060020a0316600160a060020a0316636352211e8f8e81518110151561114d57fe5b906020019060200201516040518263ffffffff1660e060020a02815260040180828152602001915050602060405180830381600087803b15801561119057600080fd5b505af11580156111a4573d6000803e3d6000fd5b505050506040513d60208110156111ba57600080fd5b5051600160a060020a0316146111cf57600080fd5b600160a060020a038a1630146111e457600080fd5b8794505b60c087015160ff1688018510801561120257506005548511155b801561124a575060008581526020819052604081206002018054909190811061122757fe5b60009182526020918290209181049091015460ff601f9092166101000a90041615155b1561150a578460018e8d81518110151561126057fe5b602090810290910101518154811061127457fe5b906000526020600020015410151561128b576114ff565b5060009250829150819050805b60058110156113075760008581526020819052604090206002018054829081106112be57fe5b60009182526020918290209181049091015460ff601f9092166101000a9004168782600881106112ea57fe5b602002015160ff1614156112ff576001909301925b600101611298565b60008581526020819052604090206002018054600590811061132557fe5b60009182526020918290209181049091015460ff601f9092166101000a900416876005602002015160ff16141561135d576001909201915b83600514801561136b575082155b1561138f57600f5460e088015190925060ff161561138a576002820291505b6114a7565b83600414801561139f5750826001145b156113d757600f60015b015460e088015190925060ff161561138a5760008581526020819052604090206003015491909102906114a7565b8360041480156113e5575082155b156113f357600f60026113a9565b8360031480156114035750826001145b1561141157600f60036113a9565b83600314801561141f575082155b1561142d57600f60046113a9565b83600214801561143d5750826001145b1561144b57600f60056113a9565b83600114801561145b5750826001145b1561146957600f60066113a9565b831580156114775750826001145b156114a75760165460e088015190925060ff16156114a75760008581526020819052604090206003015491909102905b60008211156114ff57600085815260208190526040902060019081018054820190558d518691908f908e9081106114da57fe5b60209081029091010151815481106114ee57fe5b6000918252602090912001559a81019a5b6001909401936111e8565b6001909a0199610f86565b8b600c54118061152657508b600b54115b151561157c576040805160e560020a62461bcd02815260206004820152600860248201527f6e6f2066756e6473000000000000000000000000000000000000000000000000604482015290519081900360640190fd5b601954604080517fa9059cbb000000000000000000000000000000000000000000000000000000008152336004820152602481018f90529051600160a060020a039092169163a9059cbb916044808201926020929091908290030181600087803b1580156115e957600080fd5b505af11580156115fd573d6000803e3d6000fd5b505050506040513d602081101561161357600080fd5b5050600c548c1161163957600c54611631908d63ffffffff612c8516565b600c55611650565b600b5461164c908d63ffffffff612c8516565b600b555b50505050505050505050505050565b600c5481565b60035481565b600080600080600061167b61310b565b600080600080600098505b8a51891015611946576018548b51600160a060020a03909116906350b44712908d908c9081106116b257fe5b906020019060200201516040518263ffffffff1660e060020a02815260040180828152602001915050606060405180830381600087803b1580156116f557600080fd5b505af1158015611709573d6000803e3d6000fd5b505050506040513d606081101561171f57600080fd5b50805160208201516040909201519099509097509550600093505b600784101561177e5786846008811061174f57fe5b60f860020a91901a81020485856007811061176657fe5b60ff909216602092909202015260019093019261173a565b600160a060020a038816301461179357600080fd5b60055486111580156117b35750846006602002015160ff16860160055411155b15156117be57600080fd5b60055460028c8b8151811015156117d157fe5b60209081029091010151815481106117e557fe5b9060005260206000200154141515156117fd57600080fd5b60055460009081526020819052604081206002018054909190811061181e57fe5b60009182526020918290209181049091015460ff601f9092166101000a900416151561184957600080fd5b5060009150819050805b60058110156118c557600554600090815260208190526040902060020180548290811061187c57fe5b60009182526020918290209181049091015460ff601f9092166101000a9004168582600781106118a857fe5b602002015160ff1614156118bd576001909201915b600101611853565b600580546000908152602081905260409020600201805490919081106118e757fe5b60009182526020918290209181049091015460ff601f9092166101000a900416856005602002015160ff16141561191f576001909101905b82600514801561192f5750816001145b1561193b576001909901985b600190980197611686565b505050505050505050919050565b600083815260208190526040902061197190600201836006613069565b5060008381526020818152604091829020600301839055815185815291517f014a2f55694ce7098b97b9cde6cb602bf573889b6020a905963b0bfca91d59dd9281900390910190a1505050565b60095481565b600e54600160a060020a031681565b600e54600160a060020a031633146119ea57600080fd5b600354600101600554141515611a4a576040805160e560020a62461bcd02815260206004820152601560248201527f44726177206d7573742062652066696e69736865640000000000000000000000604482015290519081900360640190fd5b60048054601954604080517f70a082310000000000000000000000000000000000000000000000000000000081523094810194909452519192600160a060020a03909116916370a08231916024808201926020929091908290030181600087803b158015611ab757600080fd5b505af1158015611acb573d6000803e3d6000fd5b505050506040513d6020811015611ae157600080fd5b50511015611b39576040805160e560020a62461bcd02815260206004820181905260248201527f496e737566696369656e7420616d6f756e74206f662042455420746f6b656e73604482015290519081900360640190fd5b4382118015611b4757508181115b1515611b9d576040805160e560020a62461bcd02815260206004820152600c60248201527f57726f6e6720626c6f636b730000000000000000000000000000000000000000604482015290519081900360640190fd5b611bae82600263ffffffff612c9c16565b600a556008819055600782905560408051600680825260e08201909252906020820160c08038833950506005546000908152602081815260409091208351611bff9460029092019350910190613069565b5060035460408051918252517fcbe711f8302c26b5ddca13414a18ce69881f2cc33092614bed6871a8a63a94af9181900360200190a16003805460019081019091556005541415611ce057601954604080517f70a082310000000000000000000000000000000000000000000000000000000081523060048201529051600160a060020a03909216916370a08231916024808201926020929091908290030181600087803b158015611cb057600080fd5b505af1158015611cc4573d6000803e3d6000fd5b505050506040513d6020811015611cda57600080fd5b5051600b555b5050565b600e54600160a060020a03163314611cfb57600080fd5b611ce0600f82600861312a565b60055481565b6017805482908110611d1c57fe5b600091825260209091200154600160a060020a0316905081565b6002805482908110611d4457fe5b600091825260209091200154905081565b600080600060075443101515611db5576040805160e560020a62461bcd02815260206004820152600f60248201527f53656c6c2077617320636c6f7365640000000000000000000000000000000000604482015290519081900360640190fd5b8360061a60f860020a0260f860020a900460ff1660011480611dea57508360061a60f860020a0260f860020a900460ff166005145b80611e0857508360061a60f860020a0260f860020a900460ff16600a145b80611e2657508360061a60f860020a0260f860020a900460ff166019145b80611e4457508360061a60f860020a0260f860020a900460ff166034145b1515611e9a576040805160e560020a62461bcd02815260206004820152600a60248201527f3520313020323520353200000000000000000000000000000000000000000000604482015290519081900360640190fd5b5050600d5460f860020a600684901a81028190049250600784901a027fff00000000000000000000000000000000000000000000000000000000000000161580159160ff84160290611eea576002025b601954604080517f23b872dd000000000000000000000000000000000000000000000000000000008152336004820152306024820152604481018490529051600160a060020a03909216916323b872dd916064808201926020929091908290030181600087803b158015611f5d57600080fd5b505af1158015611f71573d6000803e3d6000fd5b505050506040513d6020811015611f8757600080fd5b50511515611f9457600080fd5b601854600554604080517f6598bcde000000000000000000000000000000000000000000000000000000008152336004820152600160c060020a031988166024820152604481019290925251600160a060020a0390921691636598bcde9160648082019260009290919082900301818387803b15801561201357600080fd5b505af1158015612027573d6000803e3d6000fd5b505060018054808201825560007fb10e2d527612073b26eecdfd717e6a320cf44b4afac2b0732d9fcbe2b7fa0cf6909101819055600280548084019091557f405787fa12a823e0f2b7631cc41b3ba8828b3321ca811111fa75cd3aa3bb5ace018190556005548152602081905260409020805490910190555050600c546120b4908263ffffffff612c9c16565b600c5550505050565b60075481565b60008080600f841115612146576040805160e560020a62461bcd02815260206004820152602c60248201527f43616e6e6f74207075726368617365206d6f7265207468616e2031352074696360448201527f6b657473206174206f6e63650000000000000000000000000000000000000000606482015290519081900360840190fd5b600754431061219f576040805160e560020a62461bcd02815260206004820152600f60248201527f53656c6c2077617320636c6f7365640000000000000000000000000000000000604482015290519081900360640190fd5b600091505b838210156124dd578484838181106121b857fe5b90506020020135600160c060020a03191660066008811015156121d757fe5b1a60f860020a0260f860020a900460ff166001148061223157508484838181106121fd57fe5b90506020020135600160c060020a031916600660088110151561221c57fe5b1a60f860020a0260f860020a900460ff166005145b80612277575084848381811061224357fe5b90506020020135600160c060020a031916600660088110151561226257fe5b1a60f860020a0260f860020a900460ff16600a145b806122bd575084848381811061228957fe5b90506020020135600160c060020a03191660066008811015156122a857fe5b1a60f860020a0260f860020a900460ff166019145b8061230357508484838181106122cf57fe5b90506020020135600160c060020a03191660066008811015156122ee57fe5b1a60f860020a0260f860020a900460ff166034145b1515612359576040805160e560020a62461bcd02815260206004820152600a60248201527f3520313020323520353200000000000000000000000000000000000000000000604482015290519081900360640190fd5b600d5460055486868581811061236b57fe5b90506020020135600160c060020a031916600660088110151561238a57fe5b1a60f860020a0260f860020a900460ff160302905084848381811015156123ad57fe5b90506020020135600160c060020a03191660076008811015156123cc57fe5b5050601854600160a060020a0316636598bcde338787868181106123ec57fe5b6005546040805160e060020a63ffffffff8916028152600160a060020a039096166004870152600160c060020a03196020909302949094013591909116602485015260448401525051606480830192600092919082900301818387803b15801561245557600080fd5b505af1158015612469573d6000803e3d6000fd5b505060018054808201825560007fb10e2d527612073b26eecdfd717e6a320cf44b4afac2b0732d9fcbe2b7fa0cf69091018190556002805480840182559082527f405787fa12a823e0f2b7631cc41b3ba8828b3321ca811111fa75cd3aa3bb5ace0155948301949390930192506121a49050565b601954604080517f23b872dd000000000000000000000000000000000000000000000000000000008152336004820152306024820152604481018690529051600160a060020a03909216916323b872dd916064808201926020929091908290030181600087803b15801561255057600080fd5b505af1158015612564573d6000803e3d6000fd5b505050506040513d602081101561257a57600080fd5b5051151561258757600080fd5b6005546000908152602081905260409020805485019055600c546125b1908463ffffffff612c9c16565b600c555050505050565b6001805482908110611d4457fe5b6000806000806125d761310b565b600080600080600098505b89518910156129df576018548a51600160a060020a03909116906350b44712908c908c90811061260e57fe5b906020019060200201516040518263ffffffff1660e060020a02815260040180828152602001915050606060405180830381600087803b15801561265157600080fd5b505af1158015612665573d6000803e3d6000fd5b505050506040513d606081101561267b57600080fd5b50805160208201516040909201519099509097509550600093505b60078410156126da578684600881106126ab57fe5b60f860020a91901a8102048585600781106126c257fe5b60ff9092166020929092020152600190930192612696565b6018548a513391600160a060020a031690636352211e908d908d9081106126fd57fe5b906020019060200201516040518263ffffffff1660e060020a02815260040180828152602001915050602060405180830381600087803b15801561274057600080fd5b505af1158015612754573d6000803e3d6000fd5b505050506040513d602081101561276a57600080fd5b5051600160a060020a03161461277f57600080fd5b600160a060020a038816301461279457600080fd5b60055486111580156127b45750846006602002015160ff16860160055411155b15156127bf57600080fd5b60055460028b8b8151811015156127d257fe5b60209081029091010151815481106127e657fe5b9060005260206000200154141515156127fe57600080fd5b60055460009081526020819052604081206002018054909190811061281f57fe5b60009182526020918290209181049091015460ff601f9092166101000a900416151561284a57600080fd5b5060009150819050805b60058110156128c657600554600090815260208190526040902060020180548290811061287d57fe5b60009182526020918290209181049091015460ff601f9092166101000a9004168582600781106128a957fe5b602002015160ff1614156128be576001909201915b600101612854565b600580546000908152602081905260409020600201805490919081106128e857fe5b60009182526020918290209181049091015460ff601f9092166101000a900416856005602002015160ff161415612920576001909101905b8260051480156129305750816001145b1561298557601780546001810182556000919091527fc624b66cc0138b8fabc209247f72d758e1cf3343756d543badbf24212bed8c1501805473ffffffffffffffffffffffffffffffffffffffff1916331790555b60055460028b8b81518110151561299857fe5b60209081029091010151815481106129ac57fe5b600091825260208083209091019290925560055481529081905260409020600190810180548201905598909801976125e2565b50505050505050505050565b600e54600160a060020a03163314612a0257600080fd5b612a0d600554612ca9565b6005546000908152602081905260409020612a2f916002909101906006613069565b50612a38612e53565b600554600090815260208190526040902060030155565b601954600160a060020a031681565b601754600b546000918291811515612a7257fe5b049150600090505b601754811015612b335760195460178054600160a060020a039092169163a9059cbb919084908110612aa857fe5b60009182526020808320909101546040805160e060020a63ffffffff8716028152600160a060020a039092166004830152602482018890525160448083019491928390030190829087803b158015612aff57600080fd5b505af1158015612b13573d6000803e3d6000fd5b505050506040513d6020811015612b2957600080fd5b5050600101612a7a565b612b3f60176000613164565b50506000600b55565b600080600080670de0b6b3a7640000851015612b6357612c7e565b600b54612b7790869063ffffffff612c8516565b9350612b9d6103e8612b91866101a463ffffffff612f7216565b9063ffffffff612f9b16565b9250612bb76103e8612b91866101a463ffffffff612f7216565b9150612bd06103e8612b918660a063ffffffff612f7216565b600c849055600b805484019055601954600e54604080517fa9059cbb000000000000000000000000000000000000000000000000000000008152600160a060020a03928316600482015260248101859052905193945091169163a9059cbb916044808201926020929091908290030181600087803b158015612c5157600080fd5b505af1158015612c65573d6000803e3d6000fd5b505050506040513d6020811015612c7b57600080fd5b50505b5050505050565b600082821115612c9157fe5b508082035b92915050565b81810182811015612c9657fe5b612cb1613182565b612cb9613182565b600083815260208190526040812060020180548291829182908110612cda57fe5b60009182526020918290209181049091015460ff601f9092166101000a90041615612d4f576040805160e560020a62461bcd02815260206004820152601e60248201527f57696e20636f6d62696e6174696f6e20697320616c7265616479207365740000604482015290519081900360640190fd5b600a5443118015612d645750600a5460ff0143105b1515612dba576040805160e560020a62461bcd02815260206004820152601260248201527f57726f6e6720626c6f636b206e756d6265720000000000000000000000000000604482015290519081900360640190fd5b60009250600091505b60058360ff161015612e3157612de9604560018460ff168660ff16600a54030303612fb0565b9050612df784826005610d0e565b1515612e2557808460ff851660068110612e0d57fe5b60ff9092166020929092020152600190920191612e2c565b6001909101905b612dc3565b612e41601a6001600a5403612fb0565b60ff1660a08501525091949350505050565b60408051436020808301919091526c010000000000000000000000003302828401528251603481840301815260549092019283905281516000938493602b93909282918401908083835b60208310612ebc5780518252601f199092019160209182019101612e9d565b5181516020939093036101000a6000190180199091169216919091179052604051920182900390912061ffff1692505050811515612ef657fe5b06905060028161ffff16108015612f1957506a7c13bc4b2c133c56000000600b54105b15612f275760059150612f6e565b60048161ffff161015612f3d5760049150612f6e565b60078161ffff161015612f535760039150612f6e565b60148161ffff161015612f695760029150612f6e565b600191505b5090565b6000821515612f8357506000612c96565b50818102818382811515612f9357fe5b0414612c9657fe5b60008183811515612fa857fe5b049392505050565b604080518240602080830191909152825180830382018152918301928390528151600093918291908401908083835b60208310612ffe5780518252601f199092019160209182019101612fdf565b5181516020939093036101000a600019018019909116921691909117905260405192018290039091209350505060ff8481169150821681151561303d57fe5b06600101905092915050565b610100604051908101604052806008906020820280388339509192915050565b82805482825590600052602060002090601f016020900481019282156130ff5791602002820160005b838211156130d057835183826101000a81548160ff021916908360ff1602179055509260200192600101602081600001049283019260010302613092565b80156130fd5782816101000a81549060ff02191690556001016020816000010492830192600103026130d0565b505b50612f6e9291506131a1565b60e0604051908101604052806007906020820280388339509192915050565b8260088101928215613158579160200282015b8281111561315857825182559160200191906001019061313d565b50612f6e9291506131c2565b5080546000825590600052602060002090810190610f5b91906131c2565b60c0604051908101604052806006906020820280388339509192915050565b6131bf91905b80821115612f6e57805460ff191681556001016131a7565b90565b6131bf91905b80821115612f6e57600081556001016131c85600a165627a7a72305820c7982c9117fe24aa3aa2b5d492ac4ebced52fe50a0364e90b1386eb0f34ea14b0029",
  "source": "pragma solidity ^0.4.24;\n\nimport \"./Tickets.sol\";\nimport \"./LotteryFactory.sol\";\nimport \"./ERC20.sol\";\nimport \"openzeppelin-solidity/contracts/math/SafeMath.sol\";\n\n/** @title Lottery contract */\ncontract Lottery {\n\n    using SafeMath for uint;\n    \n    /** @dev Emits when new draw was created */\n    event DrawCreated(uint256 _drawId);\n    \n    /** @dev Emits when draw was finished */\n    event DrawFinished(uint256 _drawId);\n\n    /// TEST EVENT. SHOULD BE REMOVED\n    event CombinationSet(uint256 _drawId);\n\n    /** @dev Contains different data for draw such as amount of tickets and winners, win combination, array of checked tickets */\n    struct Draw {\n        uint ticketCount;\n        uint winnerCount;\n        uint8[] winCombination; // Wining combination for the draw\n        uint multiplier;\n    }\n\n    /** @dev Contains all draws */\n    mapping(uint256 => Draw) public draws;\n\n    /** @dev last checked draw(for multiplier) */\n    uint256[] public lastCheckedDrawById;\n\n    /** @dev last checked jackpot */\n    uint256[] public checkedJackpot;\n    \n    /** @dev Draws amount */\n    uint256 public drawsCount = 0;\n\n    /** @dev Minimal amount of BET tokens to create draw */\n    uint public minDeposit;\n\n    /** @dev Stores index of current draw */\n    uint256 public currentDraw = 1;\n\n    /** @dev after this block lottery get start */\n    uint256 public startBlock;\n\n    /** @dev after this block new tickets will not accepted */\n    uint256 public sellBlock;\n\n    /** @dev before this block winner's ticket must be chosen */\n    uint256 public stopBlock;\n\n    /** @dev all players must get their reward before this block */\n    uint256 public closeBlock;\n\n    /** @dev Block number used for random */\n    uint256 blockForRandom;\n\n    /** @dev Stores amount of the jackpot */\n    uint256 public jackpot;\n\n    /** @dev Stores amount of the lottery bank */\n    uint256 public bank;\n\n    /** @dev Ticket price */\n    uint256 public ticketPrice = 2 ether;\n\n    /** @dev Address of the owner */\n    address public owner;\n\n    /** @dev Multipliers for every combination */\n    uint256[8] multipliers;\n\n    /** @dev Array of jackpot winners */\n    address[] public jackpotWinners;\n\n    /** @dev Tickets contract */\n    Tickets public tickets;\n\n    /** @dev BET token contract */\n    ERC20 public token;\n\n    constructor (address _owner, address _tickets, address _token, uint _minDeposit) public {\n        owner = _owner;\n        tickets = Tickets(_tickets);\n        token = ERC20(_token);\n        minDeposit = _minDeposit;\n\n        multipliers[0] = 1000000 ether; // 1/11,688,053.52\n        multipliers[1] = 50000 ether; // 1/913,129.18\n        multipliers[2] = 100 ether; // 1/36,525.17\n        multipliers[3] = 100 ether; // 1/14,494.11\n        multipliers[4] = 7 ether; // 1/579.76\n        multipliers[5] = 7 ether; // 1/701.33\n        multipliers[6] = 4 ether; // 1/91.98\n        multipliers[7] = 4 ether; // 1/38.32\n    }\n\n    /** @dev Provides only-owner functionality */\n    modifier onlyOwner() {\n        require(msg.sender == owner);\n        _;\n    }\n\n    /** \n     * Distribution of earned tokens for draw\n     * @param _value BET amount\n     */\n    function serviceReward(uint256 _value) internal {\n        if(_value < 1 ether)\n            return;\n        uint profit = _value.sub(jackpot);\n        uint256 valueForBank = profit.mul(420).div(1000);\n        uint256 valueForJackpot = profit.mul(420).div(1000);\n        uint256 valueForOwner = profit.mul(160).div(1000);\n        bank = valueForBank;\n        jackpot += valueForJackpot;\n        token.transfer(owner, valueForOwner);\n    }\n\n    /**\n     * @dev Sets new price of the ticket\n     * @param _price New price of the ticket\n     */\n    function setTicketPrice(uint256 _price) onlyOwner external {\n        require(_price != 0);\n        ticketPrice = _price;\n    }\n\n    /**\n     * @dev Creates new draw. Can be called only by owner\n     * @param _sellOverBlock Block after that new tickets will not accepted\n     * @param _stopLotteryBlock Before this block winner's ticket must be chosen\n     */\n    function createDraw(uint256 _sellOverBlock, uint256 _stopLotteryBlock) external onlyOwner {\n        require(currentDraw == drawsCount + 1, \"Draw must be finished\");\n        require(token.balanceOf(this) >= minDeposit, \"Insuficient amount of BET tokens\");\n        require(_sellOverBlock > block.number && _stopLotteryBlock > _sellOverBlock, \"Wrong blocks\");\n\n        blockForRandom = _sellOverBlock.add(2); // FOR TESTING - CHANGE TO 246 IN RELEASE\n        stopBlock = _stopLotteryBlock;\n        sellBlock = _sellOverBlock;\n        draws[currentDraw].winCombination = new uint8[](6);\n        emit DrawCreated(drawsCount);\n        \n        drawsCount++;\n\n        if(currentDraw == 1){\n            jackpot = token.balanceOf(this);\n        }\n    }\n\n    /**\n     * @dev Finishes draw\n     */\n    function finishDraw() external {\n        require(currentDraw == drawsCount);\n        require(stopBlock < block.number, \"Stop block was not reached\");\n        require(draws[currentDraw].winCombination[0] != 0 || block.number > (blockForRandom + 255));\n        if(jackpotWinners.length > 0 && jackpot > 0){\n            sendJackpots();\n        }\n        serviceReward(token.balanceOf(this));\n        emit DrawFinished(currentDraw);\n        currentDraw++;\n        draws[currentDraw].winCombination = new uint8[](6);\n    }\n\n    /** \n     * @dev Sends jackpot to winners\n     */\n    function sendJackpots() internal {\n        uint256 amount = jackpot / jackpotWinners.length;\n\n        for(uint256 i = 0; i < jackpotWinners.length; i++) {\n            token.transfer(jackpotWinners[i], amount);\n        }\n\n        delete jackpotWinners;\n        jackpot = 0;\n    }\n\n    /**\n     * @dev Stops draw for claiming rewards excluding jackpots \n     */\n    function stopDraw() external onlyOwner {\n        // require(block.number > blockForRandom, \"Block number is not reached\");\n        draws[currentDraw].winCombination = generateWinCombination(currentDraw);\n        draws[currentDraw].multiplier = generateMultiplier();\n    }\n\n    /**\n     * @dev Returns stats of the draw\n     * @param _drawId ID of the draw\n     * @return {\n        \"_winnerCount\": \"Amount of winners in this draw\",\n        \"_ticketCount\": \"Amount of purchased tickets\",\n        \"_winCombination\": Array of winning numbers\n     }\n     */\n    function getDrawStats(uint256 _drawId) external view returns (uint _winnerCount, uint _ticketCount, uint8[] _winCombination) {\n        _winnerCount = draws[_drawId].winnerCount;\n        _ticketCount = draws[_drawId].ticketCount;\n        _winCombination = draws[_drawId].winCombination;\n    }\n\n    /**\n     * @dev Calcs reward for tickets without jackpots\n     * @param _ids Ticket ids\n     */\n    function solveReward(uint256[] _ids) public view returns (uint256 _total) {\n        for (uint j=0; j<_ids.length; j++) {\n            address lottery;\n            bytes8 data;\n            uint256 startDraw;\n            (lottery, data, startDraw) = tickets.tickets(_ids[j]);\n            uint8[8] memory _data;\n\n            for(uint q=0; q<8; q++) {\n                _data[q] = uint8(data[q]);\n            }\n\n            if (_data[6] > 1)\n               require(_ids.length <= 5, \"you cant check more than 5 tickets with multidraw\");\n            \n            require(lottery == address(this));\n            for (uint l=startDraw; l < startDraw + _data[6] && l<=currentDraw && draws[l].winCombination[0] != 0; l++) {\n                if (lastCheckedDrawById[_ids[j]] >= l)\n                    continue;\n\n                uint white = 0;\n                uint red = 0;\n                uint256 prize = 0;\n\n                for (uint i=0; i < 5; i++)\n                    if (_data[i] == draws[l].winCombination[i]) white++;\n                if (_data[5] == draws[l].winCombination[5]) red++;\n\n                if (white == 5 && red == 0) {\n                    prize = multipliers[0];\n                    if (_data[7] != 0) prize *= 2;\n                } else if (white == 4 && red == 1) {\n                    prize = multipliers[1];\n                    if (_data[7] != 0) prize *= draws[l].multiplier;\n                } else if (white == 4 && red == 0) {\n                    prize = multipliers[2];\n                    if (_data[7] != 0) prize *= draws[l].multiplier;\n                } else if (white == 3 && red == 1) {\n                    prize = multipliers[3];\n                    if (_data[7] != 0) prize *= draws[l].multiplier;\n                } else if (white == 3 && red == 0) {\n                    prize = multipliers[4];\n                    if (_data[7] != 0) prize *= draws[l].multiplier;\n                } else if (white == 2 && red == 1) {\n                    prize = multipliers[5];\n                    if (_data[7] != 0) prize *= draws[l].multiplier;\n                } else if (white == 1 && red == 1) {\n                    prize = multipliers[6];\n                    if (_data[7] != 0) prize *= draws[l].multiplier;\n                } else if (white == 0 && red == 1) {\n                    prize = multipliers[7];\n                    if (_data[7] != 0) prize *= draws[l].multiplier;\n                }\n\n                _total += prize;\n            }\n            \n        }\n    }\n\n    /**\n     * @dev get reward for tickets without jackpots\n     * @param _ids Ticket ids\n     */\n    function getReward(uint256[] _ids) public {\n        uint256 _total = 0;\n        for (uint j=0; j<_ids.length; j++) {\n            address lottery;\n            bytes8 data;\n            uint256 startDraw;\n            (lottery, data, startDraw) = tickets.tickets(_ids[j]);\n            uint8[8] memory _data;\n\n            for(uint q=0; q<8; q++) {\n                _data[q] = uint8(data[q]);\n            }\n\n            if (_data[6] > 1)\n               require(_ids.length <= 5, \"you cant check more than 5 tickets with multidraw\");\n            \n            require(tickets.ownerOf(_ids[j]) == msg.sender);\n            require(lottery == address(this));\n            for (uint l=startDraw; l < startDraw + _data[6] && l<=currentDraw && draws[l].winCombination[0] != 0; l++) {\n                if (lastCheckedDrawById[_ids[j]] >= l)\n                    continue;\n\n                uint white = 0;\n                uint red = 0;\n                uint256 prize = 0;\n\n                for (uint i=0; i < 5; i++)\n                    if (_data[i] == draws[l].winCombination[i]) white++;\n                if (_data[5] == draws[l].winCombination[5]) red++;\n\n                if (white == 5 && red == 0) {\n                    prize = multipliers[0];\n                    if (_data[7] != 0) prize *= 2;\n                } else if (white == 4 && red == 1) {\n                    prize = multipliers[1];\n                    if (_data[7] != 0) prize *= draws[l].multiplier;\n                } else if (white == 4 && red == 0) {\n                    prize = multipliers[2];\n                    if (_data[7] != 0) prize *= draws[l].multiplier;\n                } else if (white == 3 && red == 1) {\n                    prize = multipliers[3];\n                    if (_data[7] != 0) prize *= draws[l].multiplier;\n                } else if (white == 3 && red == 0) {\n                    prize = multipliers[4];\n                    if (_data[7] != 0) prize *= draws[l].multiplier;\n                } else if (white == 2 && red == 1) {\n                    prize = multipliers[5];\n                    if (_data[7] != 0) prize *= draws[l].multiplier;\n                } else if (white == 1 && red == 1) {\n                    prize = multipliers[6];\n                    if (_data[7] != 0) prize *= draws[l].multiplier;\n                } else if (white == 0 && red == 1) {\n                    prize = multipliers[7];\n                    if (_data[7] != 0) prize *= draws[l].multiplier;\n                }\n\n                if (prize > 0) {\n                    draws[l].winnerCount++;\n                    lastCheckedDrawById[_ids[j]] = l;\n                    _total += prize;\n                }\n            }\n        }\n        require(bank > _total || jackpot > _total, \"no funds\");\n        token.transfer(msg.sender, _total);\n        if(bank >= _total)\n            bank = bank.sub(_total);\n        else\n            jackpot = jackpot.sub(_total);\n\n    }\n\n    /**\n     * @dev Calcs jackpot for tickets\n     * @param _ids Ticket ids\n     */\n    function solveJackpot(uint256[] _ids) public view returns (uint256 _numOfJackpotTickets) {\n        // todo require(_ids.length <= 5, \"you cant check more than 5 tickets\");\n        for (uint j=0; j<_ids.length; j++) {\n            address lottery;\n            bytes8 data;\n            uint256 startDraw;\n            (lottery, data, startDraw) = tickets.tickets(_ids[j]);\n            uint8[7] memory _data;\n\n            for(uint q=0; q<7; q++) {\n                _data[q] = uint8(data[q]);\n            }\n\n            require(lottery == address(this));\n            require(startDraw <= currentDraw && currentDraw <= startDraw + _data[6]);\n            require(checkedJackpot[_ids[j]] != currentDraw);\n            require(draws[currentDraw].winCombination[0] != 0);\n\n            uint white = 0;\n            uint red = 0;\n\n            for (uint i=0; i < 5; i++)\n                if (_data[i] == draws[currentDraw].winCombination[i]) white++;\n            if (_data[5] == draws[currentDraw].winCombination[5]) red++;\n\n            if (white == 5 && red == 1)\n                _numOfJackpotTickets++;\n        }\n    }\n\n    /**\n     * @dev get jackpot for tickets \n     * @param _ids Ticket ids\n     */\n    function getJackpot(uint256[] _ids) public {\n        // todo require(_ids.length <= 5, \"you cant check more than 5 tickets\");\n        for (uint j=0; j<_ids.length; j++) {\n            address lottery;\n            bytes8 data;\n            uint256 startDraw;\n            (lottery, data, startDraw) = tickets.tickets(_ids[j]);\n            uint8[7] memory _data;\n\n            for(uint q=0; q<7; q++) {\n                _data[q] = uint8(data[q]);\n            }\n\n            require(tickets.ownerOf(_ids[j]) == msg.sender);\n            require(lottery == address(this));\n            require(startDraw <= currentDraw && currentDraw <= startDraw + _data[6]);\n            require(checkedJackpot[_ids[j]] != currentDraw);\n            require(draws[currentDraw].winCombination[0] != 0);\n\n            uint white = 0;\n            uint red = 0;\n\n            for (uint i=0; i < 5; i++)\n                if (_data[i] == draws[currentDraw].winCombination[i]) white++;\n            if (_data[5] == draws[currentDraw].winCombination[5]) red++;\n\n            if (white == 5 && red == 1)\n                jackpotWinners.push(msg.sender);\n\n            checkedJackpot[_ids[j]] = currentDraw;\n\n            draws[currentDraw].winnerCount++;\n        }\n    }\n\n    /** \n     * @dev Generates winning combination for the draw\n     * @param _drawId ID of the draw\n     */\n    function generateWinCombination(uint256 _drawId) internal view returns (uint8[6]) {\n        require(draws[_drawId].winCombination[0] == 0, \"Win combination is already set\");\n        require(block.number > blockForRandom && block.number < (blockForRandom + 255), \"Wrong block number\");\n\n        uint8[6] memory arRnd;\n        uint8 count = 0;\n        uint8 seed = 0;\n        \n        while(count < 5){\n            uint8 rnd = random(69, blockForRandom - count - seed - 1);\n\n            if(contains(arRnd, rnd, 5) == 0){\n                arRnd[count] = rnd;\n                count ++;\n            } else {\n                seed ++;\n            }\n        }\n\n        arRnd[5] = random(26, blockForRandom-1);\n        return arRnd;\n    }\n\n    /** \n     * @dev Purchase one ticket \n     * @param data Ticket data\n     */\n    function buyTicket(bytes8 data) external {\n        require(block.number < sellBlock, \"Sell was closed\");\n        require(uint8(data[6]) == 1 || uint8(data[6]) == 5 || uint8(data[6]) == 10 || uint8(data[6]) == 25 || uint8(data[6]) == 52, \"5 10 25 52\");\n        uint8 _draws = uint8(data[6]);\n        bool _powerPlay = (data[7] != 0);\n\n        uint256 total = _draws * ticketPrice;\n        if (_powerPlay) total *= 2;\n\n        require(token.transferFrom(msg.sender, address(this), total));\n        tickets.createTicket(msg.sender, data, currentDraw);\n        lastCheckedDrawById.push(0);\n        checkedJackpot.push(0);\n        draws[currentDraw].ticketCount++;\n        bank = bank.add(total);\n    }\n\n    /** \n     * @dev Purchase few ticket \n     * @param _data Ticket data\n     */\n    function buyFewTickets(bytes8[] _data) external {\n        require(_data.length <= 15, \"Cannot purchase more than 15 tickets at once\");\n        require(block.number < sellBlock, \"Sell was closed\");\n        uint256 total;\n        for (uint i=0; i < _data.length; i++) {\n            require(uint8(_data[i][6]) == 1 || uint8(_data[i][6]) == 5 || uint8(_data[i][6]) == 10 || uint8(_data[i][6]) == 25 || uint8(_data[i][6]) == 52, \"5 10 25 52\");\n            uint256 subTotal = (uint8(_data[i][6])-currentDraw) * ticketPrice;\n            if (_data[i][7] != 0) subTotal * 2;\n\n            tickets.createTicket(msg.sender, _data[i], currentDraw);\n            lastCheckedDrawById.push(0);\n            checkedJackpot.push(0);\n\n            total += subTotal;\n        }\n\n        require(token.transferFrom(msg.sender, address(this), total));\n        draws[currentDraw].ticketCount += _data.length;\n        bank = bank.add(total);\n    }\n\n    /**\n     * @dev Generates multiplier for contract. Can be called only once\n     */\n    function generateMultiplier() internal view returns (uint) {\n        uint16 rnd = uint16(keccak256(abi.encodePacked(block.number, msg.sender))) % 43; //  1- 10X, 2 - 5X, 3 - 4X, 13-3X, 24 - 2X\n\n        if(rnd < 2 && jackpot < 150000000 ether){\n            return 5;\n        } else if (rnd < 4){\n            return 4;\n        } else if (rnd < 7){\n            return 3;\n        } else if (rnd < 20){\n            return 2;\n        } else {\n            return 1;\n        }\n    }\n\n    /** \n     * @dev Allows to set multipliers for different combinations\n     * @param _multipliers Array of multipliers\n    */\n    function setMultipliers(uint256[8] _multipliers) public onlyOwner {\n        multipliers = _multipliers;\n    }\n\n    /**\n    * @notice Get random number\n    * @param upper The maximum value of a random number\n    * @param _blockForRandom Value for generate random number\n    * @return randomNumber Random number\n    */\n    function random(uint8 upper, uint256 _blockForRandom) view internal returns (uint8 randomNumber) { // must be internal\n        randomNumber = uint8(keccak256(abi.encodePacked(blockhash(_blockForRandom))));\n        return randomNumber % upper + 1;\n    }\n\n    /**\n    * @notice Searches for an item in an array by using strict equality\n    * @param array Array that we sort through\n    * @param value The value we are looking for in the array\n    * @return uint Returns amount of inclusions of the element in the array\n    */\n    function contains(uint8[6] array, uint8 value, uint8 len) pure public returns(uint _amount) {\n        for (uint8 i = 0; i < len; i++) {\n            if (array[i] == value) {\n                _amount++;\n            }\n        }\n        return _amount;\n    }\n\n    //// TEST FUNCTIONS ////\n\n    /** TEST FUNCTION */\n    function setCombination(uint256 _drawId, uint8[6] _numbers, uint multiplier) public {\n        draws[_drawId].winCombination = _numbers;\n        draws[_drawId].multiplier = multiplier;\n        emit CombinationSet(_drawId);\n    }\n\n    /** TEST FUNCTION */\n    function createTicket(bytes8 data) external {\n        tickets.createTicket(msg.sender, data, currentDraw);\n        draws[currentDraw].ticketCount++;\n    }\n}",
  "sourcePath": "/home/sirvadim/deploy_lottery/LotteryGame/contracts/Lottery.sol",
  "compiler": {
    "name": "solc",
    "version": "0.4.25+commit.59dbf8f1.Emscripten.clang"
  },
  "schemaVersion": "3.0.0-beta.1",
  "updatedAt": "2018-12-13T15:43:19.206Z"
}