{
  "contractName": "Tickets",
  "abi": [
    {
      "constant": true,
      "inputs": [
        {
          "name": "_interfaceId",
          "type": "bytes4"
        }
      ],
      "name": "supportsInterface",
      "outputs": [
        {
          "name": "",
          "type": "bool"
        }
      ],
      "payable": false,
      "stateMutability": "view",
      "type": "function"
    },
    {
      "constant": true,
      "inputs": [],
      "name": "name",
      "outputs": [
        {
          "name": "",
          "type": "string"
        }
      ],
      "payable": false,
      "stateMutability": "view",
      "type": "function"
    },
    {
      "constant": true,
      "inputs": [
        {
          "name": "_tokenId",
          "type": "uint256"
        }
      ],
      "name": "getApproved",
      "outputs": [
        {
          "name": "",
          "type": "address"
        }
      ],
      "payable": false,
      "stateMutability": "view",
      "type": "function"
    },
    {
      "constant": false,
      "inputs": [
        {
          "name": "_to",
          "type": "address"
        },
        {
          "name": "_tokenId",
          "type": "uint256"
        }
      ],
      "name": "approve",
      "outputs": [],
      "payable": false,
      "stateMutability": "nonpayable",
      "type": "function"
    },
    {
      "constant": true,
      "inputs": [],
      "name": "totalSupply",
      "outputs": [
        {
          "name": "",
          "type": "uint256"
        }
      ],
      "payable": false,
      "stateMutability": "view",
      "type": "function"
    },
    {
      "constant": true,
      "inputs": [],
      "name": "InterfaceId_ERC165",
      "outputs": [
        {
          "name": "",
          "type": "bytes4"
        }
      ],
      "payable": false,
      "stateMutability": "view",
      "type": "function"
    },
    {
      "constant": false,
      "inputs": [
        {
          "name": "_from",
          "type": "address"
        },
        {
          "name": "_to",
          "type": "address"
        },
        {
          "name": "_tokenId",
          "type": "uint256"
        }
      ],
      "name": "transferFrom",
      "outputs": [],
      "payable": false,
      "stateMutability": "nonpayable",
      "type": "function"
    },
    {
      "constant": true,
      "inputs": [
        {
          "name": "_owner",
          "type": "address"
        },
        {
          "name": "_index",
          "type": "uint256"
        }
      ],
      "name": "tokenOfOwnerByIndex",
      "outputs": [
        {
          "name": "",
          "type": "uint256"
        }
      ],
      "payable": false,
      "stateMutability": "view",
      "type": "function"
    },
    {
      "constant": false,
      "inputs": [
        {
          "name": "_from",
          "type": "address"
        },
        {
          "name": "_to",
          "type": "address"
        },
        {
          "name": "_tokenId",
          "type": "uint256"
        }
      ],
      "name": "safeTransferFrom",
      "outputs": [],
      "payable": false,
      "stateMutability": "nonpayable",
      "type": "function"
    },
    {
      "constant": true,
      "inputs": [
        {
          "name": "_tokenId",
          "type": "uint256"
        }
      ],
      "name": "exists",
      "outputs": [
        {
          "name": "",
          "type": "bool"
        }
      ],
      "payable": false,
      "stateMutability": "view",
      "type": "function"
    },
    {
      "constant": true,
      "inputs": [
        {
          "name": "_index",
          "type": "uint256"
        }
      ],
      "name": "tokenByIndex",
      "outputs": [
        {
          "name": "",
          "type": "uint256"
        }
      ],
      "payable": false,
      "stateMutability": "view",
      "type": "function"
    },
    {
      "constant": true,
      "inputs": [
        {
          "name": "",
          "type": "uint256"
        }
      ],
      "name": "tickets",
      "outputs": [
        {
          "name": "lottery",
          "type": "address"
        },
        {
          "name": "data",
          "type": "bytes8"
        },
        {
          "name": "startDraw",
          "type": "uint256"
        }
      ],
      "payable": false,
      "stateMutability": "view",
      "type": "function"
    },
    {
      "constant": true,
      "inputs": [
        {
          "name": "_tokenId",
          "type": "uint256"
        }
      ],
      "name": "ownerOf",
      "outputs": [
        {
          "name": "",
          "type": "address"
        }
      ],
      "payable": false,
      "stateMutability": "view",
      "type": "function"
    },
    {
      "constant": true,
      "inputs": [
        {
          "name": "_owner",
          "type": "address"
        }
      ],
      "name": "balanceOf",
      "outputs": [
        {
          "name": "",
          "type": "uint256"
        }
      ],
      "payable": false,
      "stateMutability": "view",
      "type": "function"
    },
    {
      "constant": false,
      "inputs": [],
      "name": "renounceOwnership",
      "outputs": [],
      "payable": false,
      "stateMutability": "nonpayable",
      "type": "function"
    },
    {
      "constant": true,
      "inputs": [],
      "name": "owner",
      "outputs": [
        {
          "name": "",
          "type": "address"
        }
      ],
      "payable": false,
      "stateMutability": "view",
      "type": "function"
    },
    {
      "constant": true,
      "inputs": [],
      "name": "symbol",
      "outputs": [
        {
          "name": "",
          "type": "string"
        }
      ],
      "payable": false,
      "stateMutability": "view",
      "type": "function"
    },
    {
      "constant": false,
      "inputs": [
        {
          "name": "_to",
          "type": "address"
        },
        {
          "name": "_approved",
          "type": "bool"
        }
      ],
      "name": "setApprovalForAll",
      "outputs": [],
      "payable": false,
      "stateMutability": "nonpayable",
      "type": "function"
    },
    {
      "constant": false,
      "inputs": [
        {
          "name": "_from",
          "type": "address"
        },
        {
          "name": "_to",
          "type": "address"
        },
        {
          "name": "_tokenId",
          "type": "uint256"
        },
        {
          "name": "_data",
          "type": "bytes"
        }
      ],
      "name": "safeTransferFrom",
      "outputs": [],
      "payable": false,
      "stateMutability": "nonpayable",
      "type": "function"
    },
    {
      "constant": true,
      "inputs": [],
      "name": "factory",
      "outputs": [
        {
          "name": "",
          "type": "address"
        }
      ],
      "payable": false,
      "stateMutability": "view",
      "type": "function"
    },
    {
      "constant": true,
      "inputs": [
        {
          "name": "_tokenId",
          "type": "uint256"
        }
      ],
      "name": "tokenURI",
      "outputs": [
        {
          "name": "",
          "type": "string"
        }
      ],
      "payable": false,
      "stateMutability": "view",
      "type": "function"
    },
    {
      "constant": true,
      "inputs": [
        {
          "name": "_owner",
          "type": "address"
        },
        {
          "name": "_operator",
          "type": "address"
        }
      ],
      "name": "isApprovedForAll",
      "outputs": [
        {
          "name": "",
          "type": "bool"
        }
      ],
      "payable": false,
      "stateMutability": "view",
      "type": "function"
    },
    {
      "constant": false,
      "inputs": [
        {
          "name": "_newOwner",
          "type": "address"
        }
      ],
      "name": "transferOwnership",
      "outputs": [],
      "payable": false,
      "stateMutability": "nonpayable",
      "type": "function"
    },
    {
      "inputs": [
        {
          "name": "_name",
          "type": "string"
        },
        {
          "name": "_symbol",
          "type": "string"
        }
      ],
      "payable": false,
      "stateMutability": "nonpayable",
      "type": "constructor"
    },
    {
      "anonymous": false,
      "inputs": [
        {
          "indexed": true,
          "name": "previousOwner",
          "type": "address"
        }
      ],
      "name": "OwnershipRenounced",
      "type": "event"
    },
    {
      "anonymous": false,
      "inputs": [
        {
          "indexed": true,
          "name": "previousOwner",
          "type": "address"
        },
        {
          "indexed": true,
          "name": "newOwner",
          "type": "address"
        }
      ],
      "name": "OwnershipTransferred",
      "type": "event"
    },
    {
      "anonymous": false,
      "inputs": [
        {
          "indexed": true,
          "name": "_from",
          "type": "address"
        },
        {
          "indexed": true,
          "name": "_to",
          "type": "address"
        },
        {
          "indexed": true,
          "name": "_tokenId",
          "type": "uint256"
        }
      ],
      "name": "Transfer",
      "type": "event"
    },
    {
      "anonymous": false,
      "inputs": [
        {
          "indexed": true,
          "name": "_owner",
          "type": "address"
        },
        {
          "indexed": true,
          "name": "_approved",
          "type": "address"
        },
        {
          "indexed": true,
          "name": "_tokenId",
          "type": "uint256"
        }
      ],
      "name": "Approval",
      "type": "event"
    },
    {
      "anonymous": false,
      "inputs": [
        {
          "indexed": true,
          "name": "_owner",
          "type": "address"
        },
        {
          "indexed": true,
          "name": "_operator",
          "type": "address"
        },
        {
          "indexed": false,
          "name": "_approved",
          "type": "bool"
        }
      ],
      "name": "ApprovalForAll",
      "type": "event"
    },
    {
      "constant": false,
      "inputs": [
        {
          "name": "_to",
          "type": "address"
        },
        {
          "name": "_data",
          "type": "bytes8"
        },
        {
          "name": "_start",
          "type": "uint256"
        }
      ],
      "name": "createTicket",
      "outputs": [],
      "payable": false,
      "stateMutability": "nonpayable",
      "type": "function"
    },
    {
      "constant": true,
      "inputs": [
        {
          "name": "_ticketId",
          "type": "uint256"
        }
      ],
      "name": "getTicket",
      "outputs": [
        {
          "name": "_lottery",
          "type": "address"
        },
        {
          "name": "_ticket",
          "type": "uint8[6]"
        },
        {
          "name": "_draws",
          "type": "uint256"
        },
        {
          "name": "_power",
          "type": "bool"
        },
        {
          "name": "_start",
          "type": "uint256"
        }
      ],
      "payable": false,
      "stateMutability": "view",
      "type": "function"
    },
    {
      "constant": false,
      "inputs": [
        {
          "name": "_factory",
          "type": "address"
        }
      ],
      "name": "initLotteryFactory",
      "outputs": [],
      "payable": false,
      "stateMutability": "nonpayable",
      "type": "function"
    }
  ],
  "bytecode": "0x60806040523480156200001157600080fd5b5060405162001a5738038062001a57833981016040528051602082015190820191018181620000697f01ffc9a70000000000000000000000000000000000000000000000000000000064010000000062000182810204565b6200009d7f80ac58cd0000000000000000000000000000000000000000000000000000000064010000000062000182810204565b620000d17f4f558e790000000000000000000000000000000000000000000000000000000064010000000062000182810204565b8151620000e6906005906020850190620001ef565b508051620000fc906006906020840190620001ef565b50620001317f780e9d630000000000000000000000000000000000000000000000000000000064010000000062000182810204565b620001657f5b5e139f0000000000000000000000000000000000000000000000000000000064010000000062000182810204565b5050600c8054600160a060020a0319163317905550620002949050565b7fffffffff000000000000000000000000000000000000000000000000000000008082161415620001b257600080fd5b7fffffffff00000000000000000000000000000000000000000000000000000000166000908152602081905260409020805460ff19166001179055565b828054600181600116156101000203166002900490600052602060002090601f016020900481019282601f106200023257805160ff191683800117855562000262565b8280016001018555821562000262579182015b828111156200026257825182559160200191906001019062000245565b506200027092915062000274565b5090565b6200029191905b808211156200027057600081556001016200027b565b90565b6117b380620002a46000396000f3006080604052600436106101535763ffffffff7c010000000000000000000000000000000000000000000000000000000060003504166301ffc9a7811461015857806306fdde031461018e578063081812fc14610218578063095ea7b31461024c57806318160ddd1461027257806319fa8f501461029957806323b872dd146102cb5780632f745c59146102f557806342842e0e146103195780634f558e79146103435780634f6ccce71461035b57806350b44712146103735780636352211e146103cd5780636598bcde146103e557806370a0823114610427578063715018a6146104485780637dc379fa1461045d5780638da5cb5b146104d657806395d89b41146104eb5780639d2b5af814610500578063a22cb46514610521578063b88d4fde14610547578063c45a0155146105b6578063c87b56dd146105cb578063e985e9c5146105e3578063f2fde38b1461060a575b600080fd5b34801561016457600080fd5b5061017a600160e060020a03196004351661062b565b604080519115158252519081900360200190f35b34801561019a57600080fd5b506101a361064a565b6040805160208082528351818301528351919283929083019185019080838360005b838110156101dd5781810151838201526020016101c5565b50505050905090810190601f16801561020a5780820380516001836020036101000a031916815260200191505b509250505060405180910390f35b34801561022457600080fd5b506102306004356106e1565b60408051600160a060020a039092168252519081900360200190f35b34801561025857600080fd5b50610270600160a060020a03600435166024356106fc565b005b34801561027e57600080fd5b506102876107a5565b60408051918252519081900360200190f35b3480156102a557600080fd5b506102ae6107ab565b60408051600160e060020a03199092168252519081900360200190f35b3480156102d757600080fd5b50610270600160a060020a03600435811690602435166044356107cf565b34801561030157600080fd5b50610287600160a060020a0360043516602435610874565b34801561032557600080fd5b50610270600160a060020a03600435811690602435166044356108c1565b34801561034f57600080fd5b5061017a6004356108f9565b34801561036757600080fd5b50610287600435610916565b34801561037f57600080fd5b5061038b60043561094b565b60408051600160a060020a03909416845277ffffffffffffffffffffffffffffffffffffffffffffffff19909216602084015282820152519081900360600190f35b3480156103d957600080fd5b5061023060043561098f565b3480156103f157600080fd5b50610270600160a060020a036004351677ffffffffffffffffffffffffffffffffffffffffffffffff19602435166044356109b9565b34801561043357600080fd5b50610287600160a060020a0360043516610c49565b34801561045457600080fd5b50610270610c7c565b34801561046957600080fd5b50610475600435610cdd565b604051600160a060020a0386168152602081018560c080838360005b838110156104a9578181015183820152602001610491565b50505050905001848152602001831515151581526020018281526020019550505050505060405180910390f35b3480156104e257600080fd5b50610230610e55565b3480156104f757600080fd5b506101a3610e64565b34801561050c57600080fd5b50610270600160a060020a0360043516610ec5565b34801561052d57600080fd5b50610270600160a060020a03600435166024351515610f49565b34801561055357600080fd5b50604080516020601f60643560048181013592830184900484028501840190955281845261027094600160a060020a038135811695602480359092169560443595369560849401918190840183828082843750949750610fcd9650505050505050565b3480156105c257600080fd5b5061023061100c565b3480156105d757600080fd5b506101a360043561101b565b3480156105ef57600080fd5b5061017a600160a060020a03600435811690602435166110d0565b34801561061657600080fd5b50610270600160a060020a03600435166110fe565b600160e060020a03191660009081526020819052604090205460ff1690565b60058054604080516020601f60026000196101006001881615020190951694909404938401819004810282018101909252828152606093909290918301828280156106d65780601f106106ab576101008083540402835291602001916106d6565b820191906000526020600020905b8154815290600101906020018083116106b957829003601f168201915b505050505090505b90565b600090815260026020526040902054600160a060020a031690565b60006107078261098f565b9050600160a060020a03838116908216141561072257600080fd5b33600160a060020a038216148061073e575061073e81336110d0565b151561074957600080fd5b6000828152600260205260408082208054600160a060020a031916600160a060020a0387811691821790925591518593918516917f8c5be1e5ebec7d5bd14f71427d1e84f3dd0314c0f7b2291e5b200ac8c7c3b92591a4505050565b60095490565b7f01ffc9a70000000000000000000000000000000000000000000000000000000081565b806107da3382611121565b15156107e557600080fd5b600160a060020a03841615156107fa57600080fd5b600160a060020a038316151561080f57600080fd5b6108198483611180565b61082384836111e4565b61082d838361131d565b8183600160a060020a031685600160a060020a03167fddf252ad1be2c89b69c2b068fc378daa952ba7f163c4a11628f55a4df523b3ef60405160405180910390a450505050565b600061087f83610c49565b821061088a57600080fd5b600160a060020a03831660009081526007602052604090208054839081106108ae57fe5b9060005260206000200154905092915050565b806108cc3382611121565b15156108d757600080fd5b6108f38484846020604051908101604052806000815250610fcd565b50505050565b600090815260016020526040902054600160a060020a0316151590565b60006109206107a5565b821061092b57600080fd5b600980548390811061093957fe5b90600052602060002001549050919050565b600d80548290811061095957fe5b600091825260209091206002909102018054600190910154600160a060020a038216925060a060020a90910460c060020a029083565b600081815260016020526040812054600160a060020a03168015156109b357600080fd5b92915050565b600f54604080517fbe3454530000000000000000000000000000000000000000000000000000000081523360048201529051600092600160a060020a03169163be34545391602480830192602092919082900301818787803b158015610a1e57600080fd5b505af1158015610a32573d6000803e3d6000fd5b505050506040513d6020811015610a4857600080fd5b50511515610ab757604080517f08c379a000000000000000000000000000000000000000000000000000000000815260206004820152601a60248201527f53656e646572206d75737420626520746865206c6f7474657279000000000000604482015290519081900360640190fd5b600f5460a060020a900460ff161515610b3157604080517f08c379a000000000000000000000000000000000000000000000000000000000815260206004820152601b60248201527f5469636b657473206d75737420626520696e697469616c697a65640000000000604482015290519081900360640190fd5b506040805160608101825233815277ffffffffffffffffffffffffffffffffffffffffffffffff1984166020808301918252828401858152600d805460018082018355600092835295517fd7b6990105719101dabeb77144f2a3385c8033acd3af97e9423a695e81ad1eb56002830290810180549751600160a060020a0319909816600160a060020a03938416177fffffffff0000000000000000ffffffffffffffffffffffffffffffffffffffff1660a060020a60c060020a909904989098029790971790965592517fd7b6990105719101dabeb77144f2a3385c8033acd3af97e9423a695e81ad1eb6909501949094559088168152600e8252938420805493840181558452909220018190556108f38482611366565b6000600160a060020a0382161515610c6057600080fd5b50600160a060020a031660009081526003602052604090205490565b600c54600160a060020a03163314610c9357600080fd5b600c54604051600160a060020a03909116907ff8df31144d9c2f0f6b59d69b8b98abd5459d07f2742c4df920b25aae33c6482090600090a2600c8054600160a060020a0319169055565b6000610ce7611721565b600080600080600d87815481101515610cfc57fe5b60009182526020822060029091020154600160a060020a0316965090505b6006811015610d8657600d805488908110610d3157fe5b600091825260209091206002909102015460a060020a900460c060020a028160088110610d5a57fe5b60f860020a91901a810204858260068110610d7157fe5b60ff9092166020929092020152600101610d1a565b600d805488908110610d9457fe5b600091825260209091206002909102015460a060020a900460c060020a0260061a60f860020a0260f860020a90049350600d87815481101515610dd357fe5b600091825260209091206002909102015460a060020a900460c060020a0260071a60f860020a027effffffffffffffffffffffffffffffffffffffffffffffffffffffffffffff1916600060f860020a0214159250600d87815481101515610e3757fe5b90600052602060002090600202016001015491505091939590929450565b600c54600160a060020a031681565b60068054604080516020601f60026000196101006001881615020190951694909404938401819004810282018101909252828152606093909290918301828280156106d65780601f106106ab576101008083540402835291602001916106d6565b600c54600160a060020a03163314610edc57600080fd5b600160a060020a0381161515610ef157600080fd5b600f5460a060020a900460ff1615610f0857600080fd5b600f805474ff000000000000000000000000000000000000000019600160a060020a03909316600160a060020a0319909116179190911660a060020a179055565b600160a060020a038216331415610f5f57600080fd5b336000818152600460209081526040808320600160a060020a03871680855290835292819020805460ff1916861515908117909155815190815290519293927f17307eab39ab6107e8899845ad3d59bd9653f200f220920489ca2b5937696c31929181900390910190a35050565b81610fd83382611121565b1515610fe357600080fd5b610fee8585856107cf565b610ffa858585856113b5565b151561100557600080fd5b5050505050565b600f54600160a060020a031681565b6060611026826108f9565b151561103157600080fd5b6000828152600b602090815260409182902080548351601f6002600019610100600186161502019093169290920491820184900484028101840190945280845290918301828280156110c45780601f10611099576101008083540402835291602001916110c4565b820191906000526020600020905b8154815290600101906020018083116110a757829003601f168201915b50505050509050919050565b600160a060020a03918216600090815260046020908152604080832093909416825291909152205460ff1690565b600c54600160a060020a0316331461111557600080fd5b61111e81611522565b50565b60008061112d8361098f565b905080600160a060020a031684600160a060020a03161480611168575083600160a060020a031661115d846106e1565b600160a060020a0316145b80611178575061117881856110d0565b949350505050565b81600160a060020a03166111938261098f565b600160a060020a0316146111a657600080fd5b600081815260026020526040902054600160a060020a0316156111e05760008181526002602052604090208054600160a060020a03191690555b5050565b60008060006111f38585611593565b600084815260086020908152604080832054600160a060020a038916845260079092529091205490935061122e90600163ffffffff61161c16565b600160a060020a03861660009081526007602052604090208054919350908390811061125657fe5b90600052602060002001549050806007600087600160a060020a0316600160a060020a031681526020019081526020016000208481548110151561129657fe5b6000918252602080832090910192909255600160a060020a03871681526007909152604081208054849081106112c857fe5b6000918252602080832090910192909255600160a060020a03871681526007909152604090208054906112ff906000198301611740565b50600093845260086020526040808520859055908452909220555050565b6000611329838361162e565b50600160a060020a039091166000908152600760209081526040808320805460018101825590845282842081018590559383526008909152902055565b61137082826116b1565b600980546000838152600a60205260408120829055600182018355919091527f6e1540171b6c0c960b71a7020d9f60077f6af931a8bbf590da0223dacf75c7af015550565b6000806113ca85600160a060020a031661170c565b15156113d95760019150611519565b6040517f150b7a020000000000000000000000000000000000000000000000000000000081523360048201818152600160a060020a03898116602485015260448401889052608060648501908152875160848601528751918a169463150b7a0294938c938b938b93909160a490910190602085019080838360005b8381101561146c578181015183820152602001611454565b50505050905090810190601f1680156114995780820380516001836020036101000a031916815260200191505b5095505050505050602060405180830381600087803b1580156114bb57600080fd5b505af11580156114cf573d6000803e3d6000fd5b505050506040513d60208110156114e557600080fd5b5051600160e060020a031981167f150b7a020000000000000000000000000000000000000000000000000000000014925090505b50949350505050565b600160a060020a038116151561153757600080fd5b600c54604051600160a060020a038084169216907f8be0079c531659141344cd1fd0a4f28419497f9722a3daafe3b4186f6b6457e090600090a3600c8054600160a060020a031916600160a060020a0392909216919091179055565b81600160a060020a03166115a68261098f565b600160a060020a0316146115b957600080fd5b600160a060020a0382166000908152600360205260409020546115e390600163ffffffff61161c16565b600160a060020a039092166000908152600360209081526040808320949094559181526001909152208054600160a060020a0319169055565b60008282111561162857fe5b50900390565b600081815260016020526040902054600160a060020a03161561165057600080fd5b60008181526001602081815260408084208054600160a060020a031916600160a060020a038816908117909155845260039091529091205461169191611714565b600160a060020a0390921660009081526003602052604090209190915550565b600160a060020a03821615156116c657600080fd5b6116d0828261131d565b6040518190600160a060020a038416906000907fddf252ad1be2c89b69c2b068fc378daa952ba7f163c4a11628f55a4df523b3ef908290a45050565b6000903b1190565b818101828110156109b357fe5b60c0604051908101604052806006906020820280388339509192915050565b81548183558181111561176457600083815260209020611764918101908301611769565b505050565b6106de91905b80821115611783576000815560010161176f565b50905600a165627a7a72305820885962196760d836c2543dae724ff1e2cc86ce31c49ee6b4e6c4822a551845390029",
  "source": "pragma solidity ^0.4.24;\n\nimport \"openzeppelin-solidity/contracts/token/ERC721/ERC721Token.sol\";\nimport \"openzeppelin-solidity/contracts/ownership/Ownable.sol\";\nimport \"./LotteryFactory.sol\";\n\n/** @title Tickets */\ncontract Tickets is ERC721Token, Ownable {\n\n    /** @dev Contains all data about ticket */\n    struct Ticket {\n        address lottery;\n        bytes8 data;\n        uint startDraw;\n    }\n\n    /** @dev Array where tickets is stored */\n    Ticket[] public tickets;\n\n    /** @dev Mapping contains all tickets by owner */\n    mapping (address => uint256[]) ticketsByOwner;\n    \n    /** @dev Address of the lottery factory contract */\n    LotteryFactory public factory;\n\n    /** @dev Used as contract initialization flag */\n    bool private isInitialized;\n\n    constructor(string _name, string _symbol) public ERC721Token(_name, _symbol) {}\n\n    /**\n     * @dev Mints new ticket to chosen address\n     * @param _to Address to mint token to\n     * @param _data Ticket data in byte format\n     * @param _start Starting draw\n     */\n    function createTicket(address _to, bytes8 _data, uint _start) external {\n        require(factory.isLottery(msg.sender), \"Sender must be the lottery\");\n        require(isInitialized, \"Tickets must be initialized\");\n        uint tokenId = tickets.push(Ticket(msg.sender, _data, _start)) - 1;\n        ticketsByOwner[_to].push(tokenId);\n        _mint(_to, tokenId);\n    }\n\n    /**\n     * @dev Returns ticket data\n     * @param _ticketId ID of ticket\n     * @return Ticket data\n     */\n    function getTicket(uint256 _ticketId) external view returns (address _lottery, uint8[6] _ticket, uint _draws, bool _power, uint _start) {\n        _lottery = tickets[_ticketId].lottery;\n\n        for(uint i=0; i<6; i++) {\n            _ticket[i] = uint8(tickets[_ticketId].data[i]);\n        }\n\n        _draws = uint(tickets[_ticketId].data[6]);\n        _power = (tickets[_ticketId].data[7] != 0);\n        _start = tickets[_ticketId].startDraw;\n    }\n\n    /** \n     * @dev Initializes Lottery Factory contract. Can be called only once by creator\n     * @param _factory Address of the LotteryFactory contract \n     */\n    function initLotteryFactory(LotteryFactory _factory) onlyOwner external {\n        require(_factory != address(0));\n        require(!isInitialized);\n        factory = _factory;\n        isInitialized = true;\n    }\n}\n\n",
  "sourcePath": "/home/sirvadim/deploy_lottery/LotteryGame/contracts/Tickets.sol",
  "compiler": {
    "name": "solc",
    "version": "0.4.25+commit.59dbf8f1.Emscripten.clang"
  },
  "schemaVersion": "3.0.0-beta.1",
  "updatedAt": "2018-12-12T10:51:25.396Z"
}