{
  "contractName": "Lottery",
  "abi": [
    {
      "constant": true,
      "inputs": [],
      "name": "totalNumberOfTickets",
      "outputs": [
        {
          "name": "",
          "type": "uint256"
        }
      ],
      "payable": false,
      "stateMutability": "view",
      "type": "function"
    },
    {
      "constant": true,
      "inputs": [
        {
          "name": "",
          "type": "address"
        }
      ],
      "name": "curDraws",
      "outputs": [
        {
          "name": "",
          "type": "uint256"
        }
      ],
      "payable": false,
      "stateMutability": "view",
      "type": "function"
    },
    {
      "constant": true,
      "inputs": [
        {
          "name": "",
          "type": "address"
        },
        {
          "name": "",
          "type": "uint256"
        }
      ],
      "name": "usersTickets",
      "outputs": [
        {
          "name": "",
          "type": "uint256"
        }
      ],
      "payable": false,
      "stateMutability": "view",
      "type": "function"
    },
    {
      "constant": true,
      "inputs": [],
      "name": "multiplier",
      "outputs": [
        {
          "name": "",
          "type": "uint8"
        }
      ],
      "payable": false,
      "stateMutability": "view",
      "type": "function"
    },
    {
      "constant": true,
      "inputs": [
        {
          "name": "",
          "type": "uint256"
        }
      ],
      "name": "listWinTicketDraws",
      "outputs": [
        {
          "name": "wb1",
          "type": "uint8"
        },
        {
          "name": "wb2",
          "type": "uint8"
        },
        {
          "name": "wb3",
          "type": "uint8"
        },
        {
          "name": "wb4",
          "type": "uint8"
        },
        {
          "name": "wb5",
          "type": "uint8"
        },
        {
          "name": "rb",
          "type": "uint8"
        },
        {
          "name": "pp",
          "type": "bool"
        }
      ],
      "payable": false,
      "stateMutability": "view",
      "type": "function"
    },
    {
      "constant": true,
      "inputs": [],
      "name": "winTicketChoosen",
      "outputs": [
        {
          "name": "",
          "type": "bool"
        }
      ],
      "payable": false,
      "stateMutability": "view",
      "type": "function"
    },
    {
      "constant": true,
      "inputs": [],
      "name": "numberOfTickets",
      "outputs": [
        {
          "name": "",
          "type": "uint256"
        }
      ],
      "payable": false,
      "stateMutability": "view",
      "type": "function"
    },
    {
      "constant": true,
      "inputs": [],
      "name": "blockForRandom",
      "outputs": [
        {
          "name": "",
          "type": "uint256"
        }
      ],
      "payable": false,
      "stateMutability": "view",
      "type": "function"
    },
    {
      "constant": true,
      "inputs": [],
      "name": "lotteryManager",
      "outputs": [
        {
          "name": "",
          "type": "address"
        }
      ],
      "payable": false,
      "stateMutability": "view",
      "type": "function"
    },
    {
      "constant": true,
      "inputs": [],
      "name": "idTicket",
      "outputs": [
        {
          "name": "",
          "type": "uint256"
        }
      ],
      "payable": false,
      "stateMutability": "view",
      "type": "function"
    },
    {
      "constant": true,
      "inputs": [],
      "name": "priceTicket",
      "outputs": [
        {
          "name": "",
          "type": "uint256"
        }
      ],
      "payable": false,
      "stateMutability": "view",
      "type": "function"
    },
    {
      "constant": true,
      "inputs": [],
      "name": "jackpot",
      "outputs": [
        {
          "name": "",
          "type": "uint256"
        }
      ],
      "payable": false,
      "stateMutability": "view",
      "type": "function"
    },
    {
      "constant": true,
      "inputs": [],
      "name": "bank",
      "outputs": [
        {
          "name": "",
          "type": "uint256"
        }
      ],
      "payable": false,
      "stateMutability": "view",
      "type": "function"
    },
    {
      "constant": true,
      "inputs": [
        {
          "name": "",
          "type": "uint8"
        }
      ],
      "name": "dataDraws",
      "outputs": [
        {
          "name": "",
          "type": "uint256"
        }
      ],
      "payable": false,
      "stateMutability": "view",
      "type": "function"
    },
    {
      "constant": true,
      "inputs": [],
      "name": "stopLotteryBlock",
      "outputs": [
        {
          "name": "",
          "type": "uint256"
        }
      ],
      "payable": false,
      "stateMutability": "view",
      "type": "function"
    },
    {
      "constant": true,
      "inputs": [],
      "name": "startLotteryBlock",
      "outputs": [
        {
          "name": "",
          "type": "uint256"
        }
      ],
      "payable": false,
      "stateMutability": "view",
      "type": "function"
    },
    {
      "constant": true,
      "inputs": [
        {
          "name": "",
          "type": "uint8"
        }
      ],
      "name": "dataPrize",
      "outputs": [
        {
          "name": "",
          "type": "uint256"
        }
      ],
      "payable": false,
      "stateMutability": "view",
      "type": "function"
    },
    {
      "constant": true,
      "inputs": [],
      "name": "owner",
      "outputs": [
        {
          "name": "",
          "type": "address"
        }
      ],
      "payable": false,
      "stateMutability": "view",
      "type": "function"
    },
    {
      "constant": true,
      "inputs": [],
      "name": "activeLottery",
      "outputs": [
        {
          "name": "",
          "type": "bool"
        }
      ],
      "payable": false,
      "stateMutability": "view",
      "type": "function"
    },
    {
      "constant": true,
      "inputs": [],
      "name": "sellOverBlock",
      "outputs": [
        {
          "name": "",
          "type": "uint256"
        }
      ],
      "payable": false,
      "stateMutability": "view",
      "type": "function"
    },
    {
      "constant": true,
      "inputs": [
        {
          "name": "",
          "type": "uint256"
        }
      ],
      "name": "ticketNumbers",
      "outputs": [
        {
          "name": "wb1",
          "type": "uint8"
        },
        {
          "name": "wb2",
          "type": "uint8"
        },
        {
          "name": "wb3",
          "type": "uint8"
        },
        {
          "name": "wb4",
          "type": "uint8"
        },
        {
          "name": "wb5",
          "type": "uint8"
        },
        {
          "name": "rb",
          "type": "uint8"
        },
        {
          "name": "pp",
          "type": "bool"
        }
      ],
      "payable": false,
      "stateMutability": "view",
      "type": "function"
    },
    {
      "constant": true,
      "inputs": [],
      "name": "closeLotteryBlock",
      "outputs": [
        {
          "name": "",
          "type": "uint256"
        }
      ],
      "payable": false,
      "stateMutability": "view",
      "type": "function"
    },
    {
      "constant": true,
      "inputs": [],
      "name": "totalWinners",
      "outputs": [
        {
          "name": "",
          "type": "uint256"
        }
      ],
      "payable": false,
      "stateMutability": "view",
      "type": "function"
    },
    {
      "constant": true,
      "inputs": [],
      "name": "winTicket",
      "outputs": [
        {
          "name": "wb1",
          "type": "uint8"
        },
        {
          "name": "wb2",
          "type": "uint8"
        },
        {
          "name": "wb3",
          "type": "uint8"
        },
        {
          "name": "wb4",
          "type": "uint8"
        },
        {
          "name": "wb5",
          "type": "uint8"
        },
        {
          "name": "rb",
          "type": "uint8"
        },
        {
          "name": "pp",
          "type": "bool"
        }
      ],
      "payable": false,
      "stateMutability": "view",
      "type": "function"
    },
    {
      "constant": true,
      "inputs": [
        {
          "name": "",
          "type": "address"
        },
        {
          "name": "",
          "type": "uint256"
        }
      ],
      "name": "usersAllTickets",
      "outputs": [
        {
          "name": "",
          "type": "uint256"
        }
      ],
      "payable": false,
      "stateMutability": "view",
      "type": "function"
    },
    {
      "constant": true,
      "inputs": [
        {
          "name": "",
          "type": "address"
        },
        {
          "name": "",
          "type": "uint256"
        }
      ],
      "name": "multiDrawsTickets",
      "outputs": [
        {
          "name": "",
          "type": "uint256"
        }
      ],
      "payable": false,
      "stateMutability": "view",
      "type": "function"
    },
    {
      "constant": true,
      "inputs": [
        {
          "name": "",
          "type": "uint8"
        }
      ],
      "name": "dataPowerPlay",
      "outputs": [
        {
          "name": "",
          "type": "uint256"
        }
      ],
      "payable": false,
      "stateMutability": "view",
      "type": "function"
    },
    {
      "constant": true,
      "inputs": [],
      "name": "countOfDraws",
      "outputs": [
        {
          "name": "",
          "type": "uint256"
        }
      ],
      "payable": false,
      "stateMutability": "view",
      "type": "function"
    },
    {
      "constant": true,
      "inputs": [
        {
          "name": "",
          "type": "address"
        }
      ],
      "name": "numEndDraws",
      "outputs": [
        {
          "name": "",
          "type": "uint256"
        }
      ],
      "payable": false,
      "stateMutability": "view",
      "type": "function"
    },
    {
      "constant": false,
      "inputs": [
        {
          "name": "newOwner",
          "type": "address"
        }
      ],
      "name": "transferOwnership",
      "outputs": [],
      "payable": false,
      "stateMutability": "nonpayable",
      "type": "function"
    },
    {
      "inputs": [
        {
          "name": "_token",
          "type": "address"
        },
        {
          "name": "_ref",
          "type": "address"
        },
        {
          "name": "_storage",
          "type": "address"
        },
        {
          "name": "_owner",
          "type": "address"
        }
      ],
      "payable": false,
      "stateMutability": "nonpayable",
      "type": "constructor"
    },
    {
      "anonymous": false,
      "inputs": [
        {
          "indexed": true,
          "name": "previousOwner",
          "type": "address"
        },
        {
          "indexed": true,
          "name": "newOwner",
          "type": "address"
        }
      ],
      "name": "OwnershipTransferred",
      "type": "event"
    },
    {
      "constant": false,
      "inputs": [
        {
          "name": "_sellOverBlock",
          "type": "uint256"
        },
        {
          "name": "_stopLotteryBlock",
          "type": "uint256"
        },
        {
          "name": "_closeLotteryBlock",
          "type": "uint256"
        }
      ],
      "name": "createLottery",
      "outputs": [],
      "payable": false,
      "stateMutability": "nonpayable",
      "type": "function"
    },
    {
      "constant": false,
      "inputs": [
        {
          "name": "_manager",
          "type": "address"
        }
      ],
      "name": "setManager",
      "outputs": [],
      "payable": false,
      "stateMutability": "nonpayable",
      "type": "function"
    },
    {
      "constant": false,
      "inputs": [
        {
          "name": "_numberOfTickets",
          "type": "uint8"
        },
        {
          "name": "_tickets",
          "type": "uint8[]"
        },
        {
          "name": "_powerplay",
          "type": "bool"
        }
      ],
      "name": "buyTicket",
      "outputs": [],
      "payable": false,
      "stateMutability": "nonpayable",
      "type": "function"
    },
    {
      "constant": false,
      "inputs": [
        {
          "name": "_numberOfTickets",
          "type": "uint8"
        },
        {
          "name": "_tickets",
          "type": "uint8[]"
        },
        {
          "name": "_powerplay",
          "type": "bool"
        },
        {
          "name": "_numDraws",
          "type": "uint8"
        }
      ],
      "name": "buyMultidraw",
      "outputs": [],
      "payable": false,
      "stateMutability": "nonpayable",
      "type": "function"
    },
    {
      "constant": false,
      "inputs": [],
      "name": "chooseWinTicket",
      "outputs": [],
      "payable": false,
      "stateMutability": "nonpayable",
      "type": "function"
    },
    {
      "constant": false,
      "inputs": [],
      "name": "refund",
      "outputs": [],
      "payable": false,
      "stateMutability": "nonpayable",
      "type": "function"
    },
    {
      "constant": true,
      "inputs": [
        {
          "name": "player",
          "type": "address"
        }
      ],
      "name": "checkMyTicket",
      "outputs": [
        {
          "name": "",
          "type": "uint256[3]"
        }
      ],
      "payable": false,
      "stateMutability": "view",
      "type": "function"
    },
    {
      "constant": false,
      "inputs": [],
      "name": "getReward",
      "outputs": [],
      "payable": false,
      "stateMutability": "nonpayable",
      "type": "function"
    },
    {
      "constant": false,
      "inputs": [],
      "name": "closeLottery",
      "outputs": [],
      "payable": false,
      "stateMutability": "nonpayable",
      "type": "function"
    },
    {
      "constant": true,
      "inputs": [
        {
          "name": "_player",
          "type": "address"
        }
      ],
      "name": "getLengthTickets",
      "outputs": [
        {
          "name": "",
          "type": "uint256"
        }
      ],
      "payable": false,
      "stateMutability": "view",
      "type": "function"
    },
    {
      "constant": true,
      "inputs": [
        {
          "name": "_player",
          "type": "address"
        }
      ],
      "name": "getLengthMultiDrawsTickets",
      "outputs": [
        {
          "name": "",
          "type": "uint256"
        }
      ],
      "payable": false,
      "stateMutability": "view",
      "type": "function"
    },
    {
      "constant": true,
      "inputs": [
        {
          "name": "_player",
          "type": "address"
        }
      ],
      "name": "getLengthAllTickets",
      "outputs": [
        {
          "name": "",
          "type": "uint256"
        }
      ],
      "payable": false,
      "stateMutability": "view",
      "type": "function"
    },
    {
      "constant": false,
      "inputs": [
        {
          "name": "price",
          "type": "uint256"
        }
      ],
      "name": "setPriceTicket",
      "outputs": [],
      "payable": false,
      "stateMutability": "nonpayable",
      "type": "function"
    },
    {
      "constant": false,
      "inputs": [
        {
          "name": "data",
          "type": "uint256[]"
        }
      ],
      "name": "setDataPrize",
      "outputs": [],
      "payable": false,
      "stateMutability": "nonpayable",
      "type": "function"
    },
    {
      "constant": false,
      "inputs": [
        {
          "name": "wb1",
          "type": "uint8"
        },
        {
          "name": "wb2",
          "type": "uint8"
        },
        {
          "name": "wb3",
          "type": "uint8"
        },
        {
          "name": "wb4",
          "type": "uint8"
        },
        {
          "name": "wb5",
          "type": "uint8"
        },
        {
          "name": "rb",
          "type": "uint8"
        }
      ],
      "name": "setWinTicket",
      "outputs": [],
      "payable": false,
      "stateMutability": "nonpayable",
      "type": "function"
    }
  ],
  "bytecode": "0x60806040526000805460a060020a60ff021916905534801561002057600080fd5b506040516080806140108339810160409081528151602080840151928401516060909401516000805433600160a060020a0319918216178116600160a060020a03938416178255601b8054821695841695909517909455601c8054851695831695909517909455601d80549093169416939093179055671bc16d674ec8000060175569d3c21bcecceda10000007ff7459e621ec1fc60fd62c436d4281de72cb9f48787dc9c8288a3050292b0900455690a968163f0a57b4000007f4d08cb3ffa33592f3b5eeb877647984f4070d1d2997d57c9aea4c3e34ddd6e8e5568056bc75e2d631000007f71b77ca6c28942a6a5831a75c27e59515f05848f3eb905d816d90fe6792b6da78190557faf2afaf35ad6da1368c28c91ba52a84b6fc26e5aa0d9b26dc4fa0373e4d12c3055676124fee993bc00007f68fb8e7cad479ccc9244a179d64897454189fd25db04e15d3a5135327a17597b8190557f4e788733fe0bff9af5f3e3a353367490c603293e53707fe7e4e0071b9ed497d655673782dace9d9000007ffc80cd5fe514767bc6e66ec558e68a5429ea70b50fa6caa3b53fc9278e9186328190557fcc69885fda6bcc1a4ace058b4a62bf5e179ea78fd58a1ccd71c22cc9b688792f557fa6eef7e35abe7026729641147f7915573c7e97b47efa546f5f6e3230263bcb4981905560017fec8156718a8372b1db44bb411437d0870f3e3790d4a08526d024ce1b0b668f6b5560027f92e85d02570a8092d09a6e3a57665bc3815a2699a4074001bf1ccabf660f5a365560037f6cde3cea4b3a3fb2488b2808bae7556f4a405e50f65e1794383bc026131b13c35560047fc575c31fea594a6eb97c8e9d3f9caee4c16218c6ef37e923234c0fe9014a61e75560057f8dc18c4ccfd75f5c815b63770fa542fd953e8fef7e0e44bbdd4913470ce7e9cb55600a7f74b05292d1d4b2b48b65261b07099d24244bcb069f138d9a6bfdcf776becac4c55600890915260967f91238f30f286c9a1c6e901c4eda3b214c381c846e3dbe48df95c21488e8e1fdb5560c87f586689db7536874b78a6eac0f58556a56a106985743f7c16a699b27bb02f88bd5560e17f18fd5681ae57cb24534810e7d412d5f5690a9c6f8b4cd1522e2df7c22ae08886556034815260fa7f901aee40eb432fde4d736c071964fe76adea0e9c171c8f18f61107d3932810ac55613c8190819061038f90396000f30060806040526004361061020a5763ffffffff60e060020a600035041662746702811461020f5780630a129027146102365780630aac867e1461025757806310b2756f1461027b5780631b3ed7221461029c5780632cffaa60146102c75780632d5cf226146102e757806334fac9aa146102fc578063371790841461031d5780633992d162146103355780633d18b912146103935780634037e9e2146103a857806345745c10146103d15780634c421f9b146103e65780634f989520146103fb5780635631c7311461042c578063590e1ae3146104415780635d5cd15d146104565780635f3cbd52146104af57806364c165341461050457806366eb82de146105195780636b31ee011461057a5780636fd098161461058f57806376cdb03b146105a45780637da3ce98146105b9578063859a4866146105d457806386460256146105e9578063865b3217146105fe5780638da5cb5b146106195780639fed03831461062e578063ad95843114610643578063b7fe937914610658578063bb1d67fa14610670578063bcc941b614610685578063bf0068b41461069a578063c1432469146106af578063c593a65b146106d3578063c76624c31461073a578063cad5fce31461075e578063caf08eb814610779578063cdc95e4d1461079a578063d0ebdbe7146107af578063e20965b7146107d0578063ee68b594146107f1578063f2fde38b1461082a575b600080fd5b34801561021b57600080fd5b5061022461084b565b60408051918252519081900360200190f35b34801561024257600080fd5b50610224600160a060020a0360043516610851565b34801561026357600080fd5b50610224600160a060020a0360043516602435610863565b34801561028757600080fd5b50610224600160a060020a0360043516610893565b3480156102a857600080fd5b506102b16108ae565b6040805160ff9092168252519081900360200190f35b3480156102d357600080fd5b506102e56004356024356044356108b7565b005b3480156102f357600080fd5b506102e5610c95565b34801561030857600080fd5b50610224600160a060020a0360043516610ed8565b34801561032957600080fd5b506102e5600435610ef3565b34801561034157600080fd5b5061034d600435610f3c565b6040805160ff98891681529688166020880152948716868601529286166060860152908516608085015290931660a083015291151560c082015290519081900360e00190f35b34801561039f57600080fd5b506102e5610f92565b3480156103b457600080fd5b506103bd6112d3565b604080519115158252519081900360200190f35b3480156103dd57600080fd5b506102246112e1565b3480156103f257600080fd5b506102246112e7565b34801561040757600080fd5b506104106112ed565b60408051600160a060020a039092168252519081900360200190f35b34801561043857600080fd5b506102246112fc565b34801561044d57600080fd5b506102e5611302565b34801561046257600080fd5b50610477600160a060020a03600435166115f7565b6040518082606080838360005b8381101561049c578181015183820152602001610484565b5050505090500191505060405180910390f35b3480156104bb57600080fd5b50604080516020600480358082013583810280860185019096528085526102e595369593946024949385019291829185019084908082843750949750611b919650505050505050565b34801561051057600080fd5b50610224611e06565b34801561052557600080fd5b506040805160206004602480358281013584810280870186019097528086526102e596843560ff1696369660449591949091019291829185019084908082843750949750505050913515159250611e0c915050565b34801561058657600080fd5b50610224612772565b34801561059b57600080fd5b506102e5612778565b3480156105b057600080fd5b5061022461289e565b3480156105c557600080fd5b5061022460ff600435166128a4565b3480156105e057600080fd5b506102246128b6565b3480156105f557600080fd5b506102246128bc565b34801561060a57600080fd5b5061022460ff600435166128c2565b34801561062557600080fd5b506104106128d4565b34801561063a57600080fd5b506103bd6128e3565b34801561064f57600080fd5b506102246128f2565b34801561066457600080fd5b5061034d6004356128f8565b34801561067c57600080fd5b5061022461294e565b34801561069157600080fd5b50610224612954565b3480156106a657600080fd5b5061034d61295a565b3480156106bb57600080fd5b50610224600160a060020a03600435166024356129a4565b3480156106df57600080fd5b506040805160206004602480358281013584810280870186019097528086526102e596843560ff169636966044959194909101929182918501908490808284375094975050505082351515935050506020013560ff166129bf565b34801561074657600080fd5b50610224600160a060020a0360043516602435613377565b34801561076a57600080fd5b5061022460ff60043516613392565b34801561078557600080fd5b50610224600160a060020a03600435166133a4565b3480156107a657600080fd5b506102246133bf565b3480156107bb57600080fd5b506102e5600160a060020a03600435166133c5565b3480156107dc57600080fd5b50610224600160a060020a036004351661340b565b3480156107fd57600080fd5b506102e560ff60043581169060243581169060443581169060643581169060843581169060a4351661341d565b34801561083657600080fd5b506102e5600160a060020a036004351661367d565b60155481565b60076020526000908152604090205481565b60026020528160005260406000208181548110151561087e57fe5b90600052602060002001600091509150505481565b600160a060020a031660009081526003602052604090205490565b60195460ff1681565b60008054600160a060020a031633146108cf57600080fd5b60195462010000900460ff16156108e557600080fd5b826108f785601d63ffffffff61371116565b10801561091357508161091184600963ffffffff61371116565b105b151561091e57600080fd5b601b54604080517f70a082310000000000000000000000000000000000000000000000000000000081523060048201529051676f05b59d3b20000092600160a060020a0316916370a082319160248083019260209291908290030181600087803b15801561098b57600080fd5b505af115801561099f573d6000803e3d6000fd5b505050506040513d60208110156109b557600080fd5b505110156109c257600080fd5b600d54601b54604080517f70a082310000000000000000000000000000000000000000000000000000000081523060048201529051610a659392600160a060020a0316916370a082319160248083019260209291908290030181600087803b158015610a2d57600080fd5b505af1158015610a41573d6000803e3d6000fd5b505050506040513d6020811015610a5757600080fd5b50519063ffffffff61372b16565b600c556019805461ff001962ff00001990911662010000171690556000601455600e54610a9990600163ffffffff61371116565b600e55601084905560118390556012829055610abc84600263ffffffff61371116565b601355601d54600e54600c54604080517ffe35804e0000000000000000000000000000000000000000000000000000000081526004810193909352602483019190915251600160a060020a039092169163fe35804e9160448082019260009290919082900301818387803b158015610b3357600080fd5b505af1158015610b47573d6000803e3d6000fd5b505060408051436020808301919091526c01000000000000000000000000330282840152825160348184030181526054909201928390528151602b95509193508291908401908083835b60208310610bb05780518252601f199092019160209182019101610b91565b5181516020939093036101000a6000190180199091169216919091179052604051920182900390912061ffff1692505050811515610bea57fe5b06905060028161ffff16108015610c0d57506a7c13bc4b2c133c56000000600c54105b15610c24576019805460ff19166005179055610c8f565b60048161ffff161015610c43576019805460ff19166004179055610c8f565b60078161ffff161015610c62576019805460ff19166003179055610c8f565b60148161ffff161015610c81576019805460ff19166002179055610c8f565b6019805460ff191660011790555b50505050565b610c9d613b7e565b600080600060135443118015610cb7575060135460ff0143105b8015610ccb5750601954610100900460ff16155b1515610cd657600080fd5b60195462010000900460ff161515610ced57600080fd5b60009250600091505b60058360ff161015610d6257610d1c604560018460ff168660ff1660135403030361373d565b9050610d2884826137d6565b1515610d5657808460ff851660058110610d3e57fe5b60ff9092166020929092020152600190920191610d5d565b6001909101905b610cf6565b8351601a805460208701516040880151606089015160808a015160ff9081166401000000000291811663010000000292811662010000029381166101000260ff1990951696169590951761ff0019169290921762ff000019161763ff00000019161764ff000000001916919091178155601354610de391906000190161373d565b601a805460ff9283166501000000000090810265ff000000000019928316178084556019805461ff0019908116610100908117909255600e546000908152600a60205260409020805460ff191693881693909317808455865483900488169092029116178082558454620100009081900487160262ff00001990911617808255845463010000009081900487160263ff000000199091161780825584546401000000009081900487160264ff0000000019909116178082558454839004861690920291909216178082559154660100000000000090819004909316151590920266ff0000000000001990911617905550505050565b600160a060020a031660009081526004602052604090205490565b600054600160a060020a0316331480610f165750600b54600160a060020a031633145b1515610f2157600080fd5b60195462010000900460ff1615610f3757600080fd5b601755565b600a6020526000908152604090205460ff80821691610100810482169162010000820481169163010000008104821691640100000000820481169165010000000000810482169166010000000000009091041687565b6000806000610f9f613b9d565b60005460a060020a900460ff1615610fb657600080fd5b6000805460a060020a60ff02191660a060020a179055601954610100900460ff168015610fe4575060125443105b1515610fef57600080fd5b336000908152600260205260408120541180611018575033600090815260036020526040812054115b151561102357600080fd5b600e543360009081526007602052604090205410156110545733600090815260026020526040812061105491613bbc565b600e543360009081526006602052604090205410159350836110885733600090815260036020526040812061108891613bbc565b611091336115f7565b80516020820151601d54600e5460408086015181517f1160a8070000000000000000000000000000000000000000000000000000000081526004810193909352602483015251939750919550929350600160a060020a0390921691631160a80791604480830192600092919082900301818387803b15801561111257600080fd5b505af1158015611126573d6000803e3d6000fd5b5050601d54601654604080517fe1115aa500000000000000000000000000000000000000000000000000000000815260048101929092526024820188905233604483015251600160a060020a03909216935063e1115aa5925060648082019260009290919082900301818387803b1580156111a057600080fd5b505af11580156111b4573d6000803e3d6000fd5b50506016546111cd92509050600163ffffffff61371116565b6016553360009081526002602052604081206111e891613bbc565b816001141561124557601e80546001810182556000919091527f50bb669a95c7b50b7e8a6f09454034b2b14cf2b85c730dca9a539ca82cb6e35001805473ffffffffffffffffffffffffffffffffffffffff1916331790556112bd565b60008311156112bd57601b546040805160e060020a63a9059cbb028152336004820152602481018690529051600160a060020a039092169163a9059cbb9160448082019260009290919082900301818387803b1580156112a457600080fd5b505af11580156112b8573d6000803e3d6000fd5b505050505b50506000805460a060020a60ff02191690555050565b601954610100900460ff1681565b60145481565b60135481565b600b54600160a060020a031681565b60185481565b61130a613bdd565b60008054819081908190819060a060020a900460ff161561132a57600080fd5b6000805460a060020a60ff02191660a060020a178155338152600260205260408120541180611366575033600090815260036020526040812054115b151561137157600080fd5b6011544311801561138a5750601954610100900460ff16155b80156113a3575060195462010000900460ff1615156001145b15156113ae57600080fd5b600e543360009081526007602052604090205414806113de5750600e543360009081526006602052604090205410155b15156113e957600080fd5b33600090815260036020908152604080832054600e546006909352922054919650118015945061142e5733600090815260066020526040902080546001019055611433565b600094505b503360009081526002602052604081205492505b8260ff168160ff161015611559573360009081526002602052604081208054600592919060ff851690811061147857fe5b600091825260208083209091015483528281019390935260409182019020815160e081018352905460ff808216835261010082048116948301949094526201000081048416928201929092526301000000820483166060820152640100000000820483166080820152650100000000008204831660a08201526601000000000000909104909116151560c082015260175490965061151d90839063ffffffff61371116565b91508560c00151156115515760175461154e9061154190600263ffffffff61382916565b839063ffffffff61371116565b91505b600101611447565b33600090815260026020526040812061157191613bbc565b601b546040805160e060020a63a9059cbb028152336004820152602481018590529051600160a060020a039092169163a9059cbb9160448082019260009290919082900301818387803b1580156115c757600080fd5b505af11580156115db573d6000803e3d6000fd5b50506000805460a060020a60ff02191690555050505050505050565b6115ff613b9d565b611607613b9d565b61160f613b7e565b611617613bdd565b61161f613c19565b6000806000806000806000601960019054906101000a900460ff16151561164557600080fd5b60008b81602002015260008b6001602002015260008b60026020020152601a5460ff168a600060ff9283166020919091029190910152601a546101009004168a600160ff9283166020919091029190910152601a54620100009004168a600260ff9283166020919091029190910152601a5463010000009004168a600360ff9283166020919091029190910152601a546401000000009004168a600460ff90921660209290920201526000888160ff9092166020929092020152600088600160ff90921660209283029190910152600160a060020a038e16600090815260038252604080822054600e546006909452912054909750101561174557600095505b600160a060020a038d166000908152600260205260408120549550868601945092508291505b8360ff168260ff161015611b80578560ff168460ff161180156117ac5750600e54600160a060020a038e166000908152600660205260409020546001911115145b156118335760ff808616908316106117f957600160a060020a038d166000908152600360205260409020805460ff878503169081106117e757fe5b9060005260206000200154925061182e565b600160a060020a038d166000908152600260205260409020805460ff841690811061182057fe5b906000526020600020015492505b6118c5565b60008660ff161180156118645750600e54600160a060020a038e166000908152600660205260409020546001911115145b1561189057600160a060020a038d166000908152600360205260409020805460ff841690811061182057fe5b600160a060020a038d166000908152600260205260409020805460ff84169081106118b757fe5b906000526020600020015492505b6000838152600560209081526040808320815160e081018352905460ff808216835261010082048116838601526201000082048116938301939093526301000000810483166060830152640100000000810483166080830152650100000000008104831660a083015266010000000000009004909116151560c0820152828b52908a018290528051909a509097508790611960908c906137d6565b111561197157875160010160ff1688525b60006119818b8b602001516137d6565b111561199257875160010160ff1688525b60006119a28b8b604001516137d6565b11156119b357875160010160ff1688525b60006119c38b8b606001516137d6565b11156119d457875160010160ff1688525b60006119e48b8b608001516137d6565b11156119f557875160010160ff1688525b601a5460a08a015160ff90811665010000000000909204161415611a1b57600160208901525b5060208701518751600a0201603360ff82161415611a4d5760018b815b602002015260408b0180516001019052611b60565b8860c001518015611a6157508060ff166032145b15611aae57603260005260016020527ff7459e621ec1fc60fd62c436d4281de72cb9f48787dc9c8288a3050292b0900454611aa390600263ffffffff61384016565b8b51018b6000611a38565b8860c0015115611b2a5760195460ff90811660009081526009602090815260408083205493851683526001909152812054611af99202908d905b60200201519063ffffffff61371116565b8b5260195460ff90811660009081526009602090815260408083205493851683526001909152902054029650611b60565b60ff8116600090815260016020526040812054611b48918d90611ae8565b8b5260ff811660009081526001602052604090205496505b6000871115611b755760408b01805160010190525b60019091019061176b565b50989b9a5050505050505050505050565b600054600160a060020a0316331480611bb45750600b54600160a060020a031633145b1515611bbf57600080fd5b60195462010000900460ff1615611bd557600080fd5b806004815181101515611be457fe5b6020908102909101810151603260005260019091527ff7459e621ec1fc60fd62c436d4281de72cb9f48787dc9c8288a3050292b0900455805181906003908110611c2a57fe5b6020908102909101810151602960005260019091527f4d08cb3ffa33592f3b5eeb877647984f4070d1d2997d57c9aea4c3e34ddd6e8e55805181906002908110611c7057fe5b6020908102909101810151602860005260019091527f71b77ca6c28942a6a5831a75c27e59515f05848f3eb905d816d90fe6792b6da755805181906002908110611cb657fe5b6020908102909101810151601f6000526001918290527faf2afaf35ad6da1368c28c91ba52a84b6fc26e5aa0d9b26dc4fa0373e4d12c305581518291908110611cfb57fe5b6020908102909101810151601e6000526001918290527f68fb8e7cad479ccc9244a179d64897454189fd25db04e15d3a5135327a17597b5581518291908110611d4057fe5b60209081029091018101516015600090815260019092527f4e788733fe0bff9af5f3e3a353367490c603293e53707fe7e4e0071b9ed497d65581518291908110611d8657fe5b6020908102909101810151600b600090815260019092527ffc80cd5fe514767bc6e66ec558e68a5429ea70b50fa6caa3b53fc9278e9186325581518291908110611dcc57fe5b6020908102909101810151600160008190529091527fcc69885fda6bcc1a4ace058b4a62bf5e179ea78fd58a1ccd71c22cc9b688792f5550565b60175481565b60008060008060105443101515611e2257600080fd5b600e54336000908152600760205260409020541015611e5357336000908152600260205260408120611e5391613bbc565b33600090815260036020908152604080832054600290925290912054601991611e979160ff8b1691611e8b919063ffffffff61371116565b9063ffffffff61371116565b1115611ea257600080fd5b601754611eb89060ff891663ffffffff61384016565b93508415611efc57611ef9611eec6002611ee08a60ff1660175461384090919063ffffffff16565b9063ffffffff61382916565b859063ffffffff61371116565b93505b601b54604080517fdd62ed3e00000000000000000000000000000000000000000000000000000000815233600482015230602482015290518692600160a060020a03169163dd62ed3e9160448083019260209291908290030181600087803b158015611f6757600080fd5b505af1158015611f7b573d6000803e3d6000fd5b505050506040513d6020811015611f9157600080fd5b50511015611f9e57600080fd5b601b54604080517f23b872dd000000000000000000000000000000000000000000000000000000008152336004820152306024820152604481018790529051600160a060020a03909216916323b872dd916064808201926020929091908290030181600087803b15801561201157600080fd5b505af1158015612025573d6000803e3d6000fd5b505050506040513d602081101561203b57600080fd5b5051151561204857600080fd5b600e543360008181526007602052604090209190915561206790613864565b9250600160a060020a038316156121175761208f6103e8611ee08660a063ffffffff61384016565b601b546040805160e060020a63a9059cbb028152600160a060020a03878116600483015260248201859052915193955091169163a9059cbb9160448082019260009290919082900301818387803b1580156120e957600080fd5b505af11580156120fd573d6000803e3d6000fd5b50505050612114828561372b90919063ffffffff16565b93505b601d54600e54604080517f796b701c000000000000000000000000000000000000000000000000000000008152600481019290925260ff8a1660248301526001604483015251600160a060020a039092169163796b701c9160648082019260009290919082900301818387803b15801561219057600080fd5b505af11580156121a4573d6000803e3d6000fd5b5050600d546121bc925090508563ffffffff61371116565b600d556014546121d59060ff891663ffffffff61371116565b6014556015546121ee9060ff891663ffffffff61371116565b6015555060005b8660ff166006028160ff161015612769576045868260ff1681518110151561221957fe5b9060200190602002015160ff161115801561225257506000868260ff1681518110151561224257fe5b9060200190602002015160ff1610155b80156122ab57506045868260010160ff1681518110151561226f57fe5b9060200190602002015160ff16111580156122ab57506000868260010160ff1681518110151561229b57fe5b9060200190602002015160ff1610155b801561230457506045868260020160ff168151811015156122c857fe5b9060200190602002015160ff161115801561230457506000868260020160ff168151811015156122f457fe5b9060200190602002015160ff1610155b801561235d57506045868260030160ff1681518110151561232157fe5b9060200190602002015160ff161115801561235d57506000868260030160ff1681518110151561234d57fe5b9060200190602002015160ff1610155b80156123b657506045868260040160ff1681518110151561237a57fe5b9060200190602002015160ff16111580156123b657506000868260040160ff168151811015156123a657fe5b9060200190602002015160ff1610155b801561240f5750601a868260050160ff168151811015156123d357fe5b9060200190602002015160ff161115801561240f57506000868260050160ff168151811015156123ff57fe5b9060200190602002015160ff1610155b151561241a57600080fd5b60e060405190810160405280878360ff1681518110151561243757fe5b9060200190602002015160ff168152602001878360010160ff1681518110151561245d57fe5b9060200190602002015160ff168152602001878360020160ff1681518110151561248357fe5b9060200190602002015160ff168152602001878360030160ff168151811015156124a957fe5b9060200190602002015160ff168152602001878360040160ff168151811015156124cf57fe5b9060200190602002015160ff168152602001878360050160ff168151811015156124f557fe5b9060200190602002015160ff16815260200186151581525060056000601854815260200190815260200160002060008201518160000160006101000a81548160ff021916908360ff16021790555060208201518160000160016101000a81548160ff021916908360ff16021790555060408201518160000160026101000a81548160ff021916908360ff16021790555060608201518160000160036101000a81548160ff021916908360ff16021790555060808201518160000160046101000a81548160ff021916908360ff16021790555060a08201518160000160056101000a81548160ff021916908360ff16021790555060c08201518160000160066101000a81548160ff0219169083151502179055509050506002600033600160a060020a0316600160a060020a0316815260200190815260200160002060185490806001815401808255809150509060018203906000526020600020016000909192909190915055506004600033600160a060020a0316600160a060020a031681526020019081526020016000206018549080600181540180825580915050906001820390600052602060002001600090919290919091505550601d60009054906101000a9004600160a060020a0316600160a060020a031663bd01c7d5600e54601854336040518463ffffffff1660e060020a0281526004018084815260200183815260200182600160a060020a0316600160a060020a031681526020019350505050600060405180830381600087803b15801561273157600080fd5b505af1158015612745573d6000803e3d6000fd5b505060185461275e92509050600163ffffffff61371116565b6018556006016121f5565b50505050505050565b600c5481565b6000805460a060020a900460ff161561279057600080fd5b6000805460a060020a60ff02191660a060020a17905560125443116127b457600080fd5b60195462010000900460ff1615156127cb57600080fd5b601b54604080517f70a082310000000000000000000000000000000000000000000000000000000081523060048201529051600160a060020a03909216916370a08231916024808201926020929091908290030181600087803b15801561283157600080fd5b505af1158015612845573d6000803e3d6000fd5b505050506040513d602081101561285b57600080fd5b50519050612868816138ff565b60125461287c90600563ffffffff61371116565b600f55506019805462ff0000191690556000805460a060020a60ff0219169055565b600d5481565b60086020526000908152604090205481565b60115481565b600f5481565b60016020526000908152604090205481565b600054600160a060020a031681565b60195462010000900460ff1681565b60105481565b60056020526000908152604090205460ff80821691610100810482169162010000820481169163010000008104821691640100000000820481169165010000000000810482169166010000000000009091041687565b60125481565b60165481565b601a5460ff80821691610100810482169162010000820481169163010000008104821691640100000000820481169165010000000000810482169166010000000000009091041687565b60046020528160005260406000208181548110151561087e57fe5b600e5433600090815260066020526040812054909182918291829110806129fe5750336000908152600660205260409020541580156129fe5750600e54155b1515612a0957600080fd5b600560ff89161115612a1a57600080fd5b8460ff1660051480612a2f57508460ff16600a145b80612a3d57508460ff166019145b80612a4b57508460ff166034145b1515612a5657600080fd5b336000908152600360205260408120612a6e91613bbc565b600e54612a849060ff871663ffffffff61371116565b33600090815260066020526040902055601754612aaa9060ff8a1663ffffffff61384016565b93508515612ad557612ad2611eec6002611ee08b60ff1660175461384090919063ffffffff16565b93505b612ae88460ff871663ffffffff61384016565b60ff8616600090815260086020526040902054909450612b2890612b1b906103e890611ee090889063ffffffff61384016565b859063ffffffff61372b16565b601b54604080517fdd62ed3e00000000000000000000000000000000000000000000000000000000815233600482015230602482015290519296508692600160a060020a039092169163dd62ed3e916044808201926020929091908290030181600087803b158015612b9957600080fd5b505af1158015612bad573d6000803e3d6000fd5b505050506040513d6020811015612bc357600080fd5b50511015612bd057600080fd5b601b54604080517f23b872dd000000000000000000000000000000000000000000000000000000008152336004820152306024820152604481018790529051600160a060020a03909216916323b872dd916064808201926020929091908290030181600087803b158015612c4357600080fd5b505af1158015612c57573d6000803e3d6000fd5b505050506040513d6020811015612c6d57600080fd5b50511515612c7a57600080fd5b612c8333613864565b9250600160a060020a03831615612d3357612cab6103e8611ee08660a063ffffffff61384016565b601b546040805160e060020a63a9059cbb028152600160a060020a03878116600483015260248201859052915193955091169163a9059cbb9160448082019260009290919082900301818387803b158015612d0557600080fd5b505af1158015612d19573d6000803e3d6000fd5b50505050612d30828561372b90919063ffffffff16565b93505b601d54600e54604080517f796b701c000000000000000000000000000000000000000000000000000000008152600481019290925260ff808c1660248401528816604483015251600160a060020a039092169163796b701c9160648082019260009290919082900301818387803b158015612dad57600080fd5b505af1158015612dc1573d6000803e3d6000fd5b5050600d54612dd9925090508563ffffffff61371116565b600d55601554612df29060ff8a1663ffffffff61371116565b6015555060005b8760ff166006028160ff16101561336d576045878260ff16815181101515612e1d57fe5b9060200190602002015160ff1611158015612e5657506000878260ff16815181101515612e4657fe5b9060200190602002015160ff1610155b8015612eaf57506045878260010160ff16815181101515612e7357fe5b9060200190602002015160ff1611158015612eaf57506000878260010160ff16815181101515612e9f57fe5b9060200190602002015160ff1610155b8015612f0857506045878260020160ff16815181101515612ecc57fe5b9060200190602002015160ff1611158015612f0857506000878260020160ff16815181101515612ef857fe5b9060200190602002015160ff1610155b8015612f6157506045878260030160ff16815181101515612f2557fe5b9060200190602002015160ff1611158015612f6157506000878260030160ff16815181101515612f5157fe5b9060200190602002015160ff1610155b8015612fba57506045878260040160ff16815181101515612f7e57fe5b9060200190602002015160ff1611158015612fba57506000878260040160ff16815181101515612faa57fe5b9060200190602002015160ff1610155b80156130135750601a878260050160ff16815181101515612fd757fe5b9060200190602002015160ff161115801561301357506000878260050160ff1681518110151561300357fe5b9060200190602002015160ff1610155b151561301e57600080fd5b60e060405190810160405280888360ff1681518110151561303b57fe5b9060200190602002015160ff168152602001888360010160ff1681518110151561306157fe5b9060200190602002015160ff168152602001888360020160ff1681518110151561308757fe5b9060200190602002015160ff168152602001888360030160ff168151811015156130ad57fe5b9060200190602002015160ff168152602001888360040160ff168151811015156130d357fe5b9060200190602002015160ff168152602001888360050160ff168151811015156130f957fe5b9060200190602002015160ff16815260200187151581525060056000601854815260200190815260200160002060008201518160000160006101000a81548160ff021916908360ff16021790555060208201518160000160016101000a81548160ff021916908360ff16021790555060408201518160000160026101000a81548160ff021916908360ff16021790555060608201518160000160036101000a81548160ff021916908360ff16021790555060808201518160000160046101000a81548160ff021916908360ff16021790555060a08201518160000160056101000a81548160ff021916908360ff16021790555060c08201518160000160066101000a81548160ff0219169083151502179055509050506003600033600160a060020a0316600160a060020a0316815260200190815260200160002060185490806001815401808255809150509060018203906000526020600020016000909192909190915055506004600033600160a060020a0316600160a060020a031681526020019081526020016000206018549080600181540180825580915050906001820390600052602060002001600090919290919091505550601d60009054906101000a9004600160a060020a0316600160a060020a031663bd01c7d5600e54601854336040518463ffffffff1660e060020a0281526004018084815260200183815260200182600160a060020a0316600160a060020a031681526020019350505050600060405180830381600087803b15801561333557600080fd5b505af1158015613349573d6000803e3d6000fd5b505060185461336292509050600163ffffffff61371116565b601855600601612df9565b5050505050505050565b60036020528160005260406000208181548110151561087e57fe5b60096020526000908152604090205481565b600160a060020a031660009081526002602052604090205490565b600e5481565b600054600160a060020a031633146133dc57600080fd5b600b805473ffffffffffffffffffffffffffffffffffffffff1916600160a060020a0392909216919091179055565b60066020526000908152604090205481565b600054600160a060020a03163314806134405750600b54600160a060020a031633145b151561344b57600080fd5b85601a60000160006101000a81548160ff021916908360ff16021790555084601a60000160016101000a81548160ff021916908360ff16021790555083601a60000160026101000a81548160ff021916908360ff16021790555082601a60000160036101000a81548160ff021916908360ff16021790555081601a60000160046101000a81548160ff021916908360ff16021790555080601a60000160056101000a81548160ff021916908360ff1602179055506001601960016101000a81548160ff021916908315150217905550601a600a6000600e5481526020019081526020016000206000820160009054906101000a900460ff168160000160006101000a81548160ff021916908360ff1602179055506000820160019054906101000a900460ff168160000160016101000a81548160ff021916908360ff1602179055506000820160029054906101000a900460ff168160000160026101000a81548160ff021916908360ff1602179055506000820160039054906101000a900460ff168160000160036101000a81548160ff021916908360ff1602179055506000820160049054906101000a900460ff168160000160046101000a81548160ff021916908360ff1602179055506000820160059054906101000a900460ff168160000160056101000a81548160ff021916908360ff1602179055506000820160069054906101000a900460ff168160000160066101000a81548160ff021916908315150217905550905050505050505050565b600054600160a060020a0316331461369457600080fd5b600160a060020a03811615156136a957600080fd5b60008054604051600160a060020a03808516939216917f8be0079c531659141344cd1fd0a4f28419497f9722a3daafe3b4186f6b6457e091a36000805473ffffffffffffffffffffffffffffffffffffffff1916600160a060020a0392909216919091179055565b60008282018381101561372057fe5b8091505b5092915050565b60008282111561373757fe5b50900390565b604080518240602080830191909152825180830382018152918301928390528151600093918291908401908083835b6020831061378b5780518252601f19909201916020918201910161376c565b5181516020939093036101000a600019018019909116921691909117905260405192018290039091209350505060ff848116915082168115156137ca57fe5b06600101905092915050565b6000805b60058160ff16101561381f578260ff16848260ff166005811015156137fb57fe5b602002015160ff161415613817578060010160ff169150613724565b6001016137da565b5060009392505050565b600080828481151561383757fe5b04949350505050565b600082820283158061385c575082848281151561385957fe5b04145b151561372057fe5b601c54604080517f15a52302000000000000000000000000000000000000000000000000000000008152600160a060020a038481166004830152825160009491909116926315a52302926024808201939182900301818787803b1580156138ca57600080fd5b505af11580156138de573d6000803e3d6000fd5b505050506040513d60408110156138f457600080fd5b506020015192915050565b60008060008060008086600c54111561391857600c8790555b600c5461392c90889063ffffffff61372b16565b601e5490955060001015613a2b57601d54600e54601e54604080517f1160a8070000000000000000000000000000000000000000000000000000000081526004810193909352602483019190915251600160a060020a0390921691631160a8079160448082019260009290919082900301818387803b1580156139ae57600080fd5b505af11580156139c2573d6000803e3d6000fd5b5050601e54600c546139dc9350915063ffffffff61382916565b9550600093505b601e54841015613a2557613a1a601e858154811015156139ff57fe5b600091825260209091200154600160a060020a031687613b0a565b6001909301926139e3565b6000600c555b613a436103e8611ee0876101a463ffffffff61384016565b9250613a5d6103e8611ee0876101a463ffffffff61384016565b9150613a766103e8611ee08760a063ffffffff61384016565b601b54600080546040805160e060020a63a9059cbb028152600160a060020a03928316600482015260248101869052905194955092169263a9059cbb92604480820193929182900301818387803b158015613ad057600080fd5b505af1158015613ae4573d6000803e3d6000fd5b5050600c54613afc925090508363ffffffff61371116565b600c555050600d5550505050565b601b546040805160e060020a63a9059cbb028152600160a060020a038581166004830152602482018590529151919092169163a9059cbb91604480830192600092919082900301818387803b158015613b6257600080fd5b505af1158015613b76573d6000803e3d6000fd5b505050505050565b60a0604051908101604052806005906020820280388339509192915050565b6060604051908101604052806003906020820280388339509192915050565b5080546000825590600052602060002090810190613bda9190613c34565b50565b6040805160e081018252600080825260208201819052918101829052606081018290526080810182905260a0810182905260c081019190915290565b60408051808201825290600290829080388339509192915050565b613c5291905b80821115613c4e5760008155600101613c3a565b5090565b905600a165627a7a72305820fbe8b8274194428c710b75f5f7feea13636fd40ea21b9c7a9a652de27a43bb2f0029",
  "source": "pragma solidity ^0.4.24;\n\nimport \"./dependencies/Types.sol\";\nimport \"./dependencies/LotteryStorage.sol\";\nimport \"./dependencies/Ownable.sol\";\nimport \"./dependencies/interfaces.sol\";\nimport \"./dependencies/ReentrancyGuard.sol\";\nimport \"./dependencies/SafeMath.sol\";\n\n/**\n@title LotteryFactory\n@notice Deploy a lottery contract\n*/\ncontract LotteryFactory {\n    uint public totalLotteries = 0; // count total lottery contract\n    address public token;\n    mapping (address => bool) public verifyLotteries;\n    mapping (uint => address) public arrayLotteries;\n\n    /**\n    @notice constructor\n    @param _token address of token contract\n    */\n    constructor(address _token) public {\n        token = _token;\n    }\n\n    /**\n    @notice Deploy a new lottery\n    @param _ref address of referral contract\n    */\n    function deployLottery(address _ref, address _storage) public {\n        address newLottery = new Lottery(token, _ref, _storage, msg.sender);\n        verifyLotteries[newLottery] = true;\n        arrayLotteries[totalLotteries] = newLottery;\n        totalLotteries ++;\n    }\n}\n\n/**\n@title Lottery\n@notice Lottery creation and process management\n*/\ncontract Lottery is Ownable, ReentrancyGuard {\n    using SafeMath for uint256;\n    using Types for *;\n\n    mapping (uint8 => uint) public dataPrize; // 50 => 1000000, 41 => 50000, ......\n    mapping (address => uint[]) public usersTickets;\n    mapping (address => uint[]) public multiDrawsTickets;\n    mapping (address => uint[]) public usersAllTickets;\n    mapping (uint => Types.Ticket) public ticketNumbers;\n    mapping (address => uint) public numEndDraws; // the number of the lottery in which the multidraw is not valid\n    mapping (address => uint) public curDraws; // list users of current draws\n    mapping (uint8 => uint) public dataDraws;\n    mapping (uint8 => uint) public dataPowerPlay;\n    mapping (uint => Types.Ticket) public listWinTicketDraws;\n    address public lotteryManager;\n    uint256 public jackpot;\n    uint256 public bank;\n    uint256 public countOfDraws; // number of running draws\n    uint256 public startLotteryBlock; // after this block lottery get start\n    uint256 public sellOverBlock; // after this block new tickets will not accepted\n    uint256 public stopLotteryBlock; // before this block wiiner's tikcet must be choosen\n    uint256 public closeLotteryBlock; // all players must get their reward before this block\n    uint256 public blockForRandom;  //  this block will be use as a seed\n    uint256 public numberOfTickets; // number of tickets of the current lottery\n    uint256 public totalNumberOfTickets; // total number of tickets\n    uint256 public totalWinners; // total number of winners\n    uint256 public priceTicket;\n    uint256 public idTicket;\n    uint8 public multiplier; // coefficient for calculating winnings from a powerplay \n    bool public winTicketChoosen;\n    bool public activeLottery;\n    Types.Ticket public winTicket;\n    ERC20Interface betToken;\n    RefInterface referrer;\n    LotteryStorage storageLottery;\n\n    address[] jackpotWinners;\n\n    modifier onlyOwnerOrLotteryManager() {\n        require(msg.sender == owner || msg.sender == lotteryManager);\n        _;\n    }\n\n    /// @dev Ticket access modifier\n    modifier sellIsActive() {\n        require(block.number < sellOverBlock);\n        _;\n    }\n\n    /// @dev Access modifier for awarding\n    modifier rewardAllowed() {\n        require(winTicketChoosen && block.number < closeLotteryBlock);\n        _;\n    }\n\n    /**\n    @notice constructor\n    @param _token Address of token contract\n    @param _ref Address of referral contract\n    @param _owner Address of operator\n    */\n    constructor(address _token, address _ref, address _storage, address _owner) public {\n        owner = _owner;\n        betToken = ERC20Interface(_token);\n        referrer = RefInterface(_ref);\n        storageLottery = LotteryStorage(_storage);\n        priceTicket = 2 ether;\n        dataPrize[50] = 1000000 ether; // 1/11,688,053.52\n        dataPrize[41] = 50000 ether; // 1/913,129.18\n        dataPrize[40] = 100 ether; // 1/36,525.17\n        dataPrize[31] = 100 ether; // 1/14,494.11\n        dataPrize[30] = 7 ether; // 1/579.76\n        dataPrize[21] = 7 ether; // 1/701.33\n        dataPrize[11] = 4 ether; // 1/91.98\n        dataPrize[1] = 4 ether; // 1/38.32\n        dataPrize[0] = 0;\n        dataPowerPlay[0] = 1;\n        dataPowerPlay[1] = 2;\n        dataPowerPlay[2] = 3;\n        dataPowerPlay[3] = 4;\n        dataPowerPlay[4] = 5;\n        dataPowerPlay[5] = 10;\n        dataDraws[5] = 150;\n        dataDraws[10] = 200;\n        dataDraws[25] = 225;\n        dataDraws[52] = 250;\n    }\n\n    /**\n    @notice Start new lottery\n    @param _sellOverBlock Before this block players can buy a ticket\n    @param _stopLotteryBlock Before this block there must be a draw of balls\n    @param _closeLotteryBlock Before this block players can pick up the reward\n    */\n    function createLottery(\n        uint256 _sellOverBlock,\n        uint256 _stopLotteryBlock,\n        uint256 _closeLotteryBlock\n    ) public onlyOwner\n    {\n        require(!activeLottery);\n        //require(_sellOverBlock.add(249) < _stopLotteryBlock && _stopLotteryBlock.add(5952) < _closeLotteryBlock); // 5952 = 1 day\n        //require(betToken.balanceOf(this) >= 40000000 ether); // for jackpot\n        require(_sellOverBlock.add(29) < _stopLotteryBlock && _stopLotteryBlock.add(9) < _closeLotteryBlock); // for test\n        require(betToken.balanceOf(this) >= 8 ether); // for test\n        jackpot = betToken.balanceOf(this).sub(bank);\n        activeLottery = true;\n        winTicketChoosen = false;\n        numberOfTickets = 0;\n        countOfDraws = countOfDraws.add(1);\n        sellOverBlock = _sellOverBlock;\n        stopLotteryBlock = _stopLotteryBlock;\n        closeLotteryBlock = _closeLotteryBlock;\n        //blockForRandom = sellOverBlock.add(248); // 248 blocks = 1 hour\n        blockForRandom = sellOverBlock.add(2); // for tests\n        storageLottery.createLottery(countOfDraws, jackpot);\n        uint16 rnd = uint16(keccak256(abi.encodePacked(block.number, msg.sender))) % 43; //  1- 10X, 2 - 5X, 3 - 4X, 13-3X, 24 - 2X\n\n        if(rnd < 2 && jackpot < 150000000 ether){\n            multiplier = 5;\n        } else if (rnd < 4){\n            multiplier = 4;\n        } else if (rnd < 7){\n            multiplier = 3;\n        } else if (rnd < 20){\n            multiplier = 2;\n        } else {\n            multiplier = 1;\n        }\n    }\n\n    /**\n    @notice Set manager\n    @param _manager Address manager\n    */\n    function setManager(address _manager) public onlyOwner {\n        lotteryManager = _manager;\n    }\n\n    /**\n    @notice Buy ticket\n    @param _numberOfTickets Number of tickets for purchase\n    @param _tickets Array of tickets\n    @param _powerplay Boolean powerplay\n    */\n    function buyTicket(uint8 _numberOfTickets, uint8[] _tickets, bool _powerplay) sellIsActive public {\n        // delete old tickets of the previous drawing\n        if(curDraws[msg.sender] < countOfDraws){\n            delete usersTickets[msg.sender];\n        }\n        // user can not have more than 25 tickets for one draw\n        require(usersTickets[msg.sender].length.add(multiDrawsTickets[msg.sender].length).add(uint(_numberOfTickets)) <= 25);\n        uint tokenAmount = priceTicket.mul(uint(_numberOfTickets));\n        if (_powerplay) {\n            tokenAmount = tokenAmount.add(priceTicket.mul(uint(_numberOfTickets)).div(2));\n        }\n        require(betToken.allowance(msg.sender, this) >= tokenAmount);\n        require(betToken.transferFrom(msg.sender, this, tokenAmount));\n        curDraws[msg.sender] = countOfDraws;\n\n        address ref = checkReferrer(msg.sender);\n        if(ref != 0){\n            // 16% of the ticket price is sent to the referee for the fact that he brought the player\n            uint256 rewardRef = tokenAmount.mul(160).div(1000);\n            betToken.transfer(ref, rewardRef);\n            tokenAmount = tokenAmount.sub(rewardRef);\n        }\n\n        storageLottery.addTicketsToDraw(countOfDraws, _numberOfTickets, 1);\n        bank = bank.add(tokenAmount);\n        numberOfTickets = numberOfTickets.add(uint(_numberOfTickets));\n        totalNumberOfTickets = totalNumberOfTickets.add(uint(_numberOfTickets));\n        // add tickets to the player\n        for (uint8 i = 0; i < uint(_numberOfTickets) * 6; i += 6) {\n            require((_tickets[i] <= 69 && _tickets[i] >= 0) &&\n            (_tickets[i+1] <= 69 && _tickets[i+1] >= 0) &&\n            (_tickets[i+2] <= 69 && _tickets[i+2] >= 0) &&\n            (_tickets[i+3] <= 69 && _tickets[i+3] >= 0) &&\n            (_tickets[i+4] <= 69 && _tickets[i+4] >= 0) &&\n            (_tickets[i+5] <= 26 && _tickets[i+5] >= 0));\n            /*require((_tickets[i] != _tickets[i+1]) && (_tickets[i] != _tickets[i+2]) && \n            (_tickets[i] != _tickets[i+3]) && (_tickets[i] != _tickets[i+4]) && \n            (_tickets[i+1] != _tickets[i+2]) && (_tickets[i+1] != _tickets[i+3]) && \n            (_tickets[i+1] != _tickets[i+4]) && (_tickets[i+2] != _tickets[i+3]) && \n            (_tickets[i+2] != _tickets[i+4]) && (_tickets[i+3] != _tickets[i+4]));*/\n\n            ticketNumbers[idTicket] = Types.Ticket(_tickets[i],\n            _tickets[i+1],\n            _tickets[i+2],\n            _tickets[i+3],\n            _tickets[i+4],\n            _tickets[i+5],\n            _powerplay);\n\n            usersTickets[msg.sender].push(idTicket);\n            usersAllTickets[msg.sender].push(idTicket);\n            storageLottery.buyTicketToDraw(countOfDraws, idTicket, msg.sender);\n            idTicket = idTicket.add(1);\n        }\n    }\n\n    /**\n    @notice Buy tickets for multi-draw\n    @param _numberOfTickets Number of tickets for purchase\n    @param _tickets Array of tickets\n    @param _powerplay Boolean powerplay\n    @param _numDraws Number of drawings\n    */\n    function buyMultidraw(uint8 _numberOfTickets, uint8[] _tickets, bool _powerplay, uint8 _numDraws) public {\n        // the user can not buy tickets if he has already bought for several drawings and they are not yet completed\n        require(numEndDraws[msg.sender] < countOfDraws || (numEndDraws[msg.sender] == 0 && countOfDraws == 0));\n        require(_numberOfTickets <= 5);\n        require(_numDraws == 5 || _numDraws == 10 || _numDraws == 25 || _numDraws == 52);\n        // delete old tickets of the previous drawings\n        delete multiDrawsTickets[msg.sender];\n        // remember before which draw bought tickets\n        numEndDraws[msg.sender] = countOfDraws.add(_numDraws);\n        uint tokenAmount = priceTicket.mul(uint(_numberOfTickets));\n        if (_powerplay) {\n            tokenAmount = tokenAmount.add(priceTicket.mul(uint(_numberOfTickets)).div(2));\n        }\n        tokenAmount = tokenAmount.mul(uint256(_numDraws));\n        tokenAmount = tokenAmount.sub(tokenAmount.mul(dataDraws[_numDraws]).div(1000));\n        require(betToken.allowance(msg.sender, this) >= tokenAmount);\n        require(betToken.transferFrom(msg.sender, this, tokenAmount));\n\n        address ref = checkReferrer(msg.sender);\n        if(ref != 0){\n            // 16% of the ticket price is sent to the referee for the fact that he brought the player\n            uint256 rewardRef = tokenAmount.mul(160).div(1000);\n            betToken.transfer(ref, rewardRef);\n            tokenAmount = tokenAmount.sub(rewardRef);\n        }\n\n        storageLottery.addTicketsToDraw(countOfDraws, _numberOfTickets, _numDraws);\n        \n        bank = bank.add(tokenAmount);\n        totalNumberOfTickets = totalNumberOfTickets.add(uint(_numberOfTickets));\n        // add tickets to the player\n        for (uint8 i = 0; i < uint(_numberOfTickets) * 6; i += 6) {\n            require((_tickets[i] <= 69 && _tickets[i] >= 0) &&\n            (_tickets[i+1] <= 69 && _tickets[i+1] >= 0) &&\n            (_tickets[i+2] <= 69 && _tickets[i+2] >= 0) &&\n            (_tickets[i+3] <= 69 && _tickets[i+3] >= 0) &&\n            (_tickets[i+4] <= 69 && _tickets[i+4] >= 0) &&\n            (_tickets[i+5] <= 26 && _tickets[i+5] >= 0));\n            /*require((_tickets[i] != _tickets[i+1]) && (_tickets[i] != _tickets[i+2]) && \n            (_tickets[i] != _tickets[i+3]) && (_tickets[i] != _tickets[i+4]) && \n            (_tickets[i+1] != _tickets[i+2]) && (_tickets[i+1] != _tickets[i+3]) && \n            (_tickets[i+1] != _tickets[i+4]) && (_tickets[i+2] != _tickets[i+3]) && \n            (_tickets[i+2] != _tickets[i+4]) && (_tickets[i+3] != _tickets[i+4]));*/\n\n            ticketNumbers[idTicket] = Types.Ticket(_tickets[i],\n            _tickets[i+1],\n            _tickets[i+2],\n            _tickets[i+3],\n            _tickets[i+4],\n            _tickets[i+5],\n            _powerplay);\n\n            multiDrawsTickets[msg.sender].push(idTicket);\n            usersAllTickets[msg.sender].push(idTicket);\n            storageLottery.buyTicketToDraw(countOfDraws, idTicket, msg.sender);\n            idTicket = idTicket.add(1);\n        }\n    }\n\n    /**\n    @notice Player check for the referral\n    @param player Address of player\n    @return {\n        \"_referrer\": \"The referrer address to receive a reward\"\n    }\n    */\n    function checkReferrer(address player) view private returns (address _referrer) {\n        (, _referrer) = referrer.getService(player);\n        return _referrer;\n    }\n\n    /**\n    @notice Get random number\n    @param upper The maximum value of a random number\n    @param _blockForRandom Value for generate random number\n    @return randomNumber Random number\n    */\n    function random(uint8 upper, uint256 _blockForRandom) view internal returns (uint8 randomNumber) { // must be internal\n        randomNumber = uint8(keccak256(abi.encodePacked(blockhash(_blockForRandom))));\n        return randomNumber % upper + 1;\n    }\n\n    /**\n    @notice Choose a winning ticket\n    */\n    function chooseWinTicket() public {\n        require(block.number > blockForRandom && block.number < (blockForRandom + 255) && winTicketChoosen == false);\n        require(activeLottery);\n        uint8[5] memory arRnd;\n        uint8 count = 0;\n        uint8 seed = 0;\n        \n        while(count < 5){\n            uint8 rnd = random(69, blockForRandom - count - seed - 1);\n\n            if(indexOf(arRnd, rnd) == 0){\n                arRnd[count] = rnd;\n                count ++;\n            } else {\n                seed ++;\n            }\n        }\n        winTicket.wb1 = arRnd[0];\n        winTicket.wb2 = arRnd[1];\n        winTicket.wb3 = arRnd[2];\n        winTicket.wb4 = arRnd[3];\n        winTicket.wb5 = arRnd[4];\n        winTicket.rb = random(26, blockForRandom-1);\n        winTicketChoosen = true;\n\n        listWinTicketDraws[countOfDraws] = winTicket;\n    }\n\n    /**\n    @notice Searches for an item in an array by using strict equality (===) and returns the index position of the item\n    @param array Array that we sort through\n    @param value The value we are looking for in the array\n    @return uint Returns the integer index of an element within an array, or 0 if the element is not in the array\n    */\n    function indexOf(uint8[5] array, uint8 value) pure internal returns(uint) {\n        for (uint8 i = 0; i < array.length; i++) {\n            if (array[i] == value) {\n                return i+1;\n            }\n        }\n        return 0;\n    }\n\n    /**\n    @notice A player can return money for tickets if the draw has not taken place\n    */\n    function refund() public nonReentrant {\n        require(usersTickets[msg.sender].length > 0 || multiDrawsTickets[msg.sender].length > 0);\n        require(block.number > stopLotteryBlock && winTicketChoosen == false && activeLottery == true);\n        require(curDraws[msg.sender] == countOfDraws || numEndDraws[msg.sender] >= countOfDraws);\n\n        Types.Ticket memory _ticket;\n        uint8 drawsLength = uint8(multiDrawsTickets[msg.sender].length);\n        bool multidraws = (numEndDraws[msg.sender] >= countOfDraws);\n        if(multidraws) {\n            numEndDraws[msg.sender] ++;\n        } else {\n            drawsLength = 0;\n        }\n        uint8 ticketLength = uint8(usersTickets[msg.sender].length);\n        uint valueToRefund;\n        \n        for (uint8 i = 0; i < ticketLength; i++) {\n            _ticket = ticketNumbers[usersTickets[msg.sender][i]];\n\n            valueToRefund = valueToRefund.add(priceTicket);\n            if (_ticket.pp) {\n                valueToRefund = valueToRefund.add((priceTicket).div(2));\n            }\n        }\n\n        delete usersTickets[msg.sender];\n        betToken.transfer(msg.sender, valueToRefund);\n    }\n\n    /**\n    @notice Checking the ticket at the address for the win\n    @param player Address of player\n    @return {\n        \"count\": \"An array containing two elements. The amount of money won. Jackpot\"\n    }\n    */\n    function checkMyTicket(address player) public view returns(uint256[3]) {\n        require(winTicketChoosen);\n        uint256[3] memory count;\n        count[0] = 0; // reward\n        count[1] = 0; // jackpot\n        count[2] = 0; // win tickets\n        uint8[5] memory arRnd;\n        arRnd[0] = winTicket.wb1;\n        arRnd[1] = winTicket.wb2;\n        arRnd[2] = winTicket.wb3;\n        arRnd[3] = winTicket.wb4;\n        arRnd[4] = winTicket.wb5;\n        Types.Ticket memory _ticket;\n        uint8[2] memory tagReward;\n        tagReward[0] = 0; // wbCount\n        tagReward[1] = 0; // rbGlobal\n        uint profitReward;\n        uint8 drawsLength = uint8(multiDrawsTickets[player].length); //5\n        if(!(numEndDraws[player] >= countOfDraws)) {\n            drawsLength = 0;\n        }\n        uint8 ticketLength = uint8(usersTickets[player].length);//0\n        uint8 countTicket = ticketLength + drawsLength;\n        uint id = 0;\n        \n        for (uint8 i = 0; i < countTicket; i++) {\n            if(countTicket > drawsLength && (numEndDraws[player] >= countOfDraws) == true){\n                if(i >= ticketLength) {\n                    id = multiDrawsTickets[player][i-ticketLength];\n                } else {\n                    id = usersTickets[player][i];\n                }\n            } else if(drawsLength > 0 && (numEndDraws[player] >= countOfDraws) == true){\n                id = multiDrawsTickets[player][i];\n            } else {\n                id = usersTickets[player][i];\n            }\n            _ticket = ticketNumbers[id];\n\n            tagReward[0] = 0;\n            tagReward[1] = 0;\n            profitReward = 0;\n            \n            if(indexOf(arRnd, _ticket.wb1) > 0){\n                tagReward[0] ++;\n            }\n            if(indexOf(arRnd, _ticket.wb2) > 0){\n                tagReward[0] ++;\n            }\n            if(indexOf(arRnd, _ticket.wb3) > 0){\n                tagReward[0] ++;\n            }\n            if(indexOf(arRnd, _ticket.wb4) > 0){\n                tagReward[0] ++;\n            }\n            if(indexOf(arRnd, _ticket.wb5) > 0){\n                tagReward[0] ++;\n            }\n\n            if (_ticket.rb == winTicket.rb) {\n                tagReward[1] = 1;\n            }\n            uint8 category = tagReward[0] * 10 + tagReward[1];\n            \n            if (category == 51) {\n                count[1] = 1; // jackpot\n                count[2] ++;\n            } else if (_ticket.pp && category == 50) {\n                count[0] = count[0] + dataPrize[50].mul(2); // match 5 + powerplay\n                count[2] ++;\n            } else if (_ticket.pp) {\n                count[0] = count[0].add(dataPrize[category] * dataPowerPlay[multiplier]); // powerplay\n                profitReward = dataPrize[category] * dataPowerPlay[multiplier];\n            } else {\n                count[0] = count[0].add(dataPrize[category]);\n                profitReward = dataPrize[category];\n            }\n            \n            if(profitReward > 0){\n                count[2] ++;\n            }\n        }\n        return count;\n    }\n\n    /**\n    @notice The player receives a reward for all tickets of the current lottery\n    */\n    function getReward() public nonReentrant rewardAllowed {\n        require(usersTickets[msg.sender].length > 0 || multiDrawsTickets[msg.sender].length > 0);\n        if(curDraws[msg.sender] < countOfDraws){\n            delete usersTickets[msg.sender];\n        }\n        bool multidraws = (numEndDraws[msg.sender] >= countOfDraws);\n        if(!multidraws) {\n            // delete old tickets of the previous drawings  \n            delete multiDrawsTickets[msg.sender];\n        }\n        uint256 reward;\n        uint256 jack;\n        //uint256 winTickets;\n        uint256[3] memory count = checkMyTicket(msg.sender);\n        reward = count[0];\n        jack = count[1];\n        //winTickets = count[2];\n        storageLottery.addWinTickets(countOfDraws, count[2]);\n        storageLottery.addUserRewards(totalWinners, reward, msg.sender);\n        totalWinners = totalWinners.add(1);\n        \n        delete usersTickets[msg.sender];\n        if (jack == 1) {\n            jackpotWinners.push(msg.sender);\n        } else if (reward > 0) {\n            betToken.transfer(msg.sender, reward);\n        }\n    }\n\n    /**\n    @notice Close lottery. Players can not pick up the reward after this time.\n    */\n    function closeLottery() public nonReentrant {\n        require(closeLotteryBlock < block.number);\n        require(activeLottery);\n        uint256 tokenAmount = betToken.balanceOf(this);\n        serviceReward(tokenAmount);\n        startLotteryBlock = closeLotteryBlock.add(5);\n        activeLottery = false;\n    }\n\n    /**\n    @notice Get length tickets\n    @param _player Address of player\n    @return uint256 length\n    */\n    function getLengthTickets(address _player) public view returns(uint256) {\n        return usersTickets[_player].length;\n    }\n\n    /**\n    @notice Get length multi-draws tickets\n    @param _player Address of player\n    @return uint256 length\n    */\n    function getLengthMultiDrawsTickets(address _player) public view returns(uint256) {\n        return multiDrawsTickets[_player].length;\n    }\n\n    /**\n    @notice Get length multi-draws tickets\n    @param _player Address of player\n    @return uint256 length\n    */\n    function getLengthAllTickets(address _player) public view returns(uint256) {\n        return usersAllTickets[_player].length;\n    }\n\n    /**\n    @notice Pay Jackpot\n    @param _to Address of player\n    @param _value Amount BET\n    */\n    function payJackpot(address _to, uint256 _value) private {\n        betToken.transfer(_to, _value);\n    }\n\n    /**\n    @notice Distribution of earned tokens for draw\n    @param _value Amount BET\n    */\n    function serviceReward(uint256 _value) internal {\n        if (jackpot > _value) {\n            jackpot = _value; // Jackpot can not exceed the balance of the contract\n        }\n\n        uint256 jackpotValue;\n        uint profit = _value.sub(jackpot);\n\n        if (jackpotWinners.length > 0) {\n            //listWinnersDraws[countOfDraws] = listWinnersDraws[countOfDraws].add(jackpotWinners.length);\n            storageLottery.addWinTickets(countOfDraws, jackpotWinners.length);\n            jackpotValue = jackpot.div(jackpotWinners.length);\n            for (uint256 i = 0; i < jackpotWinners.length; i++) {\n                payJackpot(jackpotWinners[i], jackpotValue);\n            }\n            jackpot = 0;\n        }\n\n        uint256 valueForBank = profit.mul(420).div(1000); // 42 % for bank\n        uint256 valueForJackpot = profit.mul(420).div(1000); // 42 % for Jackpot\n        uint256 valueForOwner = profit.mul(160).div(1000); // 16 % for owner\n\n        betToken.transfer(owner, valueForOwner);\n        jackpot = jackpot.add(valueForJackpot);\n        bank = valueForBank;\n    }\n\n    /**\n    @notice Set price ticket\n    @param price Price for ticket\n    */\n    function setPriceTicket(uint price) public onlyOwnerOrLotteryManager {\n        require(!activeLottery);\n        priceTicket = price;\n    }\n\n    /**\n    @notice Set data prize\n    @param data Data array\n    */\n    function setDataPrize(uint[] data) public onlyOwnerOrLotteryManager {\n        require(!activeLottery);\n        dataPrize[50] = data[4]; // 1/11,688,053.52\n        dataPrize[41] = data[3]; // 1/913,129.18\n        dataPrize[40] = data[2]; // 1/36,525.17\n        dataPrize[31] = data[2]; // 1/14,494.11\n        dataPrize[30] = data[1]; // 1/579.76\n        dataPrize[21] = data[1]; // 1/701.33\n        dataPrize[11] = data[0]; // 1/91.98\n        dataPrize[1] = data[0]; // 1/38.32\n    }\n    \n    /*\n    function withdraw() public onlyOwner {\n        require(!activeLottery);\n        betToken.transfer(msg.sender, betToken.balanceOf(this));\n        bank = 0;\n        jackpot = 0;\n    }*/\n    \n    // only for tests\n    function setWinTicket(\n        uint8 wb1, \n        uint8 wb2,\n        uint8 wb3,\n        uint8 wb4,\n        uint8 wb5,\n        uint8 rb) public onlyOwnerOrLotteryManager {\n        winTicket.wb1 = wb1;\n        winTicket.wb2 = wb2;\n        winTicket.wb3 = wb3;\n        winTicket.wb4 = wb4;\n        winTicket.wb5 = wb5;\n        winTicket.rb = rb;\n\n        winTicketChoosen = true;\n        listWinTicketDraws[countOfDraws] = winTicket;\n    }\n}",
  "sourcePath": "/Users/j0x/Projects/Lottery/LotteryGame/contracts/Lottery.sol",
  "compiler": {
    "name": "solc",
    "version": "0.4.24+commit.e67f0147.Emscripten.clang"
  },
  "schemaVersion": "2.0.0",
  "updatedAt": "2018-07-16T14:41:41.397Z"
}