{
  "contractName": "LotteryStorage",
  "abi": [
    {
      "constant": true,
      "inputs": [],
      "name": "countTicketSold",
      "outputs": [
        {
          "name": "",
          "type": "uint256"
        }
      ],
      "payable": false,
      "stateMutability": "view",
      "type": "function"
    },
    {
      "constant": true,
      "inputs": [
        {
          "name": "",
          "type": "uint256"
        }
      ],
      "name": "listTicketsDraws",
      "outputs": [
        {
          "name": "",
          "type": "uint256"
        }
      ],
      "payable": false,
      "stateMutability": "view",
      "type": "function"
    },
    {
      "constant": true,
      "inputs": [
        {
          "name": "",
          "type": "uint256"
        }
      ],
      "name": "winnerAccount",
      "outputs": [
        {
          "name": "",
          "type": "address"
        }
      ],
      "payable": false,
      "stateMutability": "view",
      "type": "function"
    },
    {
      "constant": true,
      "inputs": [
        {
          "name": "",
          "type": "uint256"
        }
      ],
      "name": "listWinnersDraws",
      "outputs": [
        {
          "name": "",
          "type": "uint256"
        }
      ],
      "payable": false,
      "stateMutability": "view",
      "type": "function"
    },
    {
      "constant": true,
      "inputs": [
        {
          "name": "",
          "type": "uint256"
        }
      ],
      "name": "ticketAccount",
      "outputs": [
        {
          "name": "",
          "type": "address"
        }
      ],
      "payable": false,
      "stateMutability": "view",
      "type": "function"
    },
    {
      "constant": true,
      "inputs": [
        {
          "name": "",
          "type": "uint256"
        }
      ],
      "name": "dateDraws",
      "outputs": [
        {
          "name": "",
          "type": "uint256"
        }
      ],
      "payable": false,
      "stateMutability": "view",
      "type": "function"
    },
    {
      "constant": true,
      "inputs": [
        {
          "name": "",
          "type": "uint256"
        }
      ],
      "name": "listUsersRewards",
      "outputs": [
        {
          "name": "",
          "type": "uint256"
        }
      ],
      "payable": false,
      "stateMutability": "view",
      "type": "function"
    },
    {
      "constant": true,
      "inputs": [],
      "name": "totalWinReward",
      "outputs": [
        {
          "name": "",
          "type": "uint256"
        }
      ],
      "payable": false,
      "stateMutability": "view",
      "type": "function"
    },
    {
      "constant": true,
      "inputs": [
        {
          "name": "",
          "type": "uint256"
        }
      ],
      "name": "dateWinners",
      "outputs": [
        {
          "name": "",
          "type": "uint256"
        }
      ],
      "payable": false,
      "stateMutability": "view",
      "type": "function"
    },
    {
      "constant": true,
      "inputs": [
        {
          "name": "",
          "type": "uint256"
        }
      ],
      "name": "dateTickets",
      "outputs": [
        {
          "name": "",
          "type": "uint256"
        }
      ],
      "payable": false,
      "stateMutability": "view",
      "type": "function"
    },
    {
      "constant": true,
      "inputs": [
        {
          "name": "",
          "type": "uint256"
        }
      ],
      "name": "listJackpotDraws",
      "outputs": [
        {
          "name": "",
          "type": "uint256"
        }
      ],
      "payable": false,
      "stateMutability": "view",
      "type": "function"
    },
    {
      "constant": true,
      "inputs": [
        {
          "name": "",
          "type": "uint256"
        }
      ],
      "name": "ticketDraws",
      "outputs": [
        {
          "name": "",
          "type": "uint256"
        }
      ],
      "payable": false,
      "stateMutability": "view",
      "type": "function"
    },
    {
      "constant": false,
      "inputs": [
        {
          "name": "_countOfDraws",
          "type": "uint256"
        },
        {
          "name": "_jackpot",
          "type": "uint256"
        }
      ],
      "name": "createLottery",
      "outputs": [],
      "payable": false,
      "stateMutability": "nonpayable",
      "type": "function"
    },
    {
      "constant": false,
      "inputs": [
        {
          "name": "_countOfDraws",
          "type": "uint256"
        },
        {
          "name": "_numberOfTickets",
          "type": "uint256"
        },
        {
          "name": "_numDraws",
          "type": "uint8"
        }
      ],
      "name": "addTicketsToDraw",
      "outputs": [],
      "payable": false,
      "stateMutability": "nonpayable",
      "type": "function"
    },
    {
      "constant": false,
      "inputs": [
        {
          "name": "_countOfDraws",
          "type": "uint256"
        },
        {
          "name": "_winTickets",
          "type": "uint256"
        }
      ],
      "name": "addWinTickets",
      "outputs": [],
      "payable": false,
      "stateMutability": "nonpayable",
      "type": "function"
    },
    {
      "constant": false,
      "inputs": [
        {
          "name": "_totalWinners",
          "type": "uint256"
        },
        {
          "name": "_reward",
          "type": "uint256"
        },
        {
          "name": "_player",
          "type": "address"
        }
      ],
      "name": "addUserRewards",
      "outputs": [],
      "payable": false,
      "stateMutability": "nonpayable",
      "type": "function"
    },
    {
      "constant": false,
      "inputs": [
        {
          "name": "_countOfDraws",
          "type": "uint256"
        },
        {
          "name": "_idTicket",
          "type": "uint256"
        },
        {
          "name": "_player",
          "type": "address"
        }
      ],
      "name": "buyTicketToDraw",
      "outputs": [],
      "payable": false,
      "stateMutability": "nonpayable",
      "type": "function"
    }
  ],
  "bytecode": "0x60806040526000600a556000600b5534801561001a57600080fd5b5061056d8061002a6000396000f3006080604052600436106100f05763ffffffff7c01000000000000000000000000000000000000000000000000000000006000350416630cfbeaf481146100f557806310967c381461011c5780631160a807146101345780635051ee28146101515780636940ca1014610185578063796b701c1461019d57806390388bac146101be578063abd678c3146101d6578063b55336b7146101ee578063bd01c7d514610206578063de5e89dd1461022d578063dfb6724814610242578063e1115aa51461025a578063e1f5848714610281578063e586470c14610299578063e62544d0146102b1578063fe35804e146102c9575b600080fd5b34801561010157600080fd5b5061010a6102e4565b60408051918252519081900360200190f35b34801561012857600080fd5b5061010a6004356102ea565b34801561014057600080fd5b5061014f6004356024356102fc565b005b34801561015d57600080fd5b50610169600435610331565b60408051600160a060020a039092168252519081900360200190f35b34801561019157600080fd5b5061010a60043561034c565b3480156101a957600080fd5b5061014f60043560243560ff6044351661035e565b3480156101ca57600080fd5b506101696004356103cd565b3480156101e257600080fd5b5061010a6004356103e8565b3480156101fa57600080fd5b5061010a6004356103fa565b34801561021257600080fd5b5061014f600435602435600160a060020a036044351661040c565b34801561023957600080fd5b5061010a61045e565b34801561024e57600080fd5b5061010a600435610464565b34801561026657600080fd5b5061014f600435602435600160a060020a0360443516610476565b34801561028d57600080fd5b5061010a6004356104d6565b3480156102a557600080fd5b5061010a6004356104e8565b3480156102bd57600080fd5b5061010a6004356104fa565b3480156102d557600080fd5b5061014f60043560243561050c565b600a5481565b60046020526000908152604090205481565b60008281526005602052604090205461031b908263ffffffff61052b16565b6000928352600560205260409092209190915550565b600960205260009081526040902054600160a060020a031681565b60056020526000908152604090205481565b60005b8160ff168160ff1610156103c75760ff81168401600090815260046020526040902054610394908463ffffffff61052b16565b60ff82168501600090815260046020526040902055600a546103bc908463ffffffff61052b16565b600a55600101610361565b50505050565b600860205260009081526040902054600160a060020a031681565b60006020819052908152604090205481565b60066020526000908152604090205481565b6000918252600260209081526040808420439055600782528084209490945560089052919020805473ffffffffffffffffffffffffffffffffffffffff1916600160a060020a03909216919091179055565b600b5481565b60016020526000908152604090205481565b60008381526006602090815260408083208590556001825280832043905560099091529020805473ffffffffffffffffffffffffffffffffffffffff1916600160a060020a038316179055600b546104ce908361052b565b600b55505050565b60026020526000908152604090205481565b60036020526000908152604090205481565b60076020526000908152604090205481565b6000918252600360209081526040808420929092558290529020439055565b60008282018381101561053a57fe5b93925050505600a165627a7a7230582074d6760cadad4fe1789a410522a99434e9c686fd76d366f3c965ac056cb6edbb0029",
  "source": "pragma solidity ^0.4.24;\n\nimport \"./SafeMath.sol\";\n\ncontract LotteryStorage {\n    using SafeMath for uint256;\n    \n    mapping (uint => uint) public dateDraws;\n    mapping (uint => uint) public dateWinners;\n    mapping (uint => uint) public dateTickets;\n    mapping (uint => uint) public listJackpotDraws;\n    mapping (uint => uint) public listTicketsDraws;\n    mapping (uint => uint) public listWinnersDraws;\n    mapping (uint => uint) public listUsersRewards;\n    mapping (uint => uint) public ticketDraws;\n    mapping (uint => address) public ticketAccount;\n    mapping (uint => address) public winnerAccount;\n    uint256 public countTicketSold = 0;\n    uint256 public totalWinReward = 0;\n\n    function createLottery(uint _countOfDraws, uint _jackpot) external {\n        listJackpotDraws[_countOfDraws] = _jackpot;\n        dateDraws[_countOfDraws] = block.number;\n    }\n\n    function addTicketsToDraw(uint _countOfDraws, uint _numberOfTickets, uint8 _numDraws) external {\n        // for statistic: total tickets for each draws\n        for (uint8 j = 0; j < _numDraws; j ++) {\n            listTicketsDraws[_countOfDraws+j] = listTicketsDraws[_countOfDraws+j].add(uint(_numberOfTickets));\n            countTicketSold = countTicketSold.add(_numberOfTickets);\n        }\n    }\n\n    function addWinTickets(uint _countOfDraws, uint _winTickets) external {\n        listWinnersDraws[_countOfDraws] = listWinnersDraws[_countOfDraws].add(_winTickets);\n    }\n\n    function addUserRewards(uint _totalWinners, uint _reward, address _player) external {\n        listUsersRewards[_totalWinners] = _reward;\n        dateWinners[_totalWinners] = block.number;\n        winnerAccount[_totalWinners] = _player;\n        totalWinReward = totalWinReward.add(_reward);\n    }\n\n    function buyTicketToDraw(uint _countOfDraws, uint _idTicket, address _player) external {\n        dateTickets[_idTicket] = block.number;\n        ticketDraws[_idTicket] = _countOfDraws;\n        ticketAccount[_idTicket] = _player;\n    }\n}",
  "sourcePath": "/Users/j0x/Projects/Lottery/LotteryGame/contracts/dependencies/LotteryStorage.sol",
  "compiler": {
    "name": "solc",
    "version": "0.4.24+commit.e67f0147.Emscripten.clang"
  },
  "schemaVersion": "2.0.0",
  "updatedAt": "2018-07-16T14:41:41.377Z"
}